{
  "contractName": "DagtPri",
  "abi": [
    {
      "constant": true,
      "inputs": [],
      "name": "mintingFinished",
      "outputs": [
        {
          "name": "",
          "type": "bool"
        }
      ],
      "payable": false,
      "stateMutability": "view",
      "type": "function"
    },
    {
      "constant": true,
      "inputs": [],
      "name": "name",
      "outputs": [
        {
          "name": "",
          "type": "string"
        }
      ],
      "payable": false,
      "stateMutability": "view",
      "type": "function"
    },
    {
      "constant": false,
      "inputs": [
        {
          "name": "_spender",
          "type": "address"
        },
        {
          "name": "_value",
          "type": "uint256"
        }
      ],
      "name": "approve",
      "outputs": [
        {
          "name": "",
          "type": "bool"
        }
      ],
      "payable": false,
      "stateMutability": "nonpayable",
      "type": "function"
    },
    {
      "constant": true,
      "inputs": [],
      "name": "totalSupply",
      "outputs": [
        {
          "name": "",
          "type": "uint256"
        }
      ],
      "payable": false,
      "stateMutability": "view",
      "type": "function"
    },
    {
      "constant": false,
      "inputs": [
        {
          "name": "_from",
          "type": "address"
        },
        {
          "name": "_to",
          "type": "address"
        },
        {
          "name": "_value",
          "type": "uint256"
        }
      ],
      "name": "transferFrom",
      "outputs": [
        {
          "name": "",
          "type": "bool"
        }
      ],
      "payable": false,
      "stateMutability": "nonpayable",
      "type": "function"
    },
    {
      "constant": true,
      "inputs": [],
      "name": "INITIAL_SUPPLY",
      "outputs": [
        {
          "name": "",
          "type": "uint256"
        }
      ],
      "payable": false,
      "stateMutability": "view",
      "type": "function"
    },
    {
      "constant": true,
      "inputs": [],
      "name": "decimals",
      "outputs": [
        {
          "name": "",
          "type": "uint8"
        }
      ],
      "payable": false,
      "stateMutability": "view",
      "type": "function"
    },
    {
      "constant": true,
      "inputs": [],
      "name": "RATE4",
      "outputs": [
        {
          "name": "",
          "type": "uint256"
        }
      ],
      "payable": false,
      "stateMutability": "view",
      "type": "function"
    },
    {
      "constant": true,
      "inputs": [],
      "name": "initTimeStamp",
      "outputs": [
        {
          "name": "",
          "type": "uint256"
        }
      ],
      "payable": false,
      "stateMutability": "view",
      "type": "function"
    },
    {
      "constant": false,
      "inputs": [
        {
          "name": "_spender",
          "type": "address"
        },
        {
          "name": "_subtractedValue",
          "type": "uint256"
        }
      ],
      "name": "decreaseApproval",
      "outputs": [
        {
          "name": "",
          "type": "bool"
        }
      ],
      "payable": false,
      "stateMutability": "nonpayable",
      "type": "function"
    },
    {
      "constant": true,
      "inputs": [
        {
          "name": "_owner",
          "type": "address"
        }
      ],
      "name": "balanceOf",
      "outputs": [
        {
          "name": "balance",
          "type": "uint256"
        }
      ],
      "payable": false,
      "stateMutability": "view",
      "type": "function"
    },
    {
      "constant": true,
      "inputs": [],
      "name": "RATE2",
      "outputs": [
        {
          "name": "",
          "type": "uint256"
        }
      ],
      "payable": false,
      "stateMutability": "view",
      "type": "function"
    },
    {
      "constant": true,
      "inputs": [],
      "name": "RATE5",
      "outputs": [
        {
          "name": "",
          "type": "uint256"
        }
      ],
      "payable": false,
      "stateMutability": "view",
      "type": "function"
    },
    {
      "constant": false,
      "inputs": [],
      "name": "finishMinting",
      "outputs": [
        {
          "name": "",
          "type": "bool"
        }
      ],
      "payable": false,
      "stateMutability": "nonpayable",
      "type": "function"
    },
    {
      "constant": true,
      "inputs": [],
      "name": "owner",
      "outputs": [
        {
          "name": "",
          "type": "address"
        }
      ],
      "payable": false,
      "stateMutability": "view",
      "type": "function"
    },
    {
      "constant": true,
      "inputs": [],
      "name": "symbol",
      "outputs": [
        {
          "name": "",
          "type": "string"
        }
      ],
      "payable": false,
      "stateMutability": "view",
      "type": "function"
    },
    {
      "constant": true,
      "inputs": [],
      "name": "LOCK_NUMS_SUPPLY",
      "outputs": [
        {
          "name": "",
          "type": "uint256"
        }
      ],
      "payable": false,
      "stateMutability": "view",
      "type": "function"
    },
    {
      "constant": false,
      "inputs": [
        {
          "name": "_to",
          "type": "address"
        },
        {
          "name": "_value",
          "type": "uint256"
        }
      ],
      "name": "transfer",
      "outputs": [
        {
          "name": "",
          "type": "bool"
        }
      ],
      "payable": false,
      "stateMutability": "nonpayable",
      "type": "function"
    },
    {
      "constant": true,
      "inputs": [],
      "name": "RATE1",
      "outputs": [
        {
          "name": "",
          "type": "uint256"
        }
      ],
      "payable": false,
      "stateMutability": "view",
      "type": "function"
    },
    {
      "constant": false,
      "inputs": [
        {
          "name": "_spender",
          "type": "address"
        },
        {
          "name": "_addedValue",
          "type": "uint256"
        }
      ],
      "name": "increaseApproval",
      "outputs": [
        {
          "name": "",
          "type": "bool"
        }
      ],
      "payable": false,
      "stateMutability": "nonpayable",
      "type": "function"
    },
    {
      "constant": true,
      "inputs": [
        {
          "name": "_owner",
          "type": "address"
        },
        {
          "name": "_spender",
          "type": "address"
        }
      ],
      "name": "allowance",
      "outputs": [
        {
          "name": "",
          "type": "uint256"
        }
      ],
      "payable": false,
      "stateMutability": "view",
      "type": "function"
    },
    {
      "constant": false,
      "inputs": [],
      "name": "getDAGTRate",
      "outputs": [
        {
          "name": "rate",
          "type": "uint256"
        },
        {
          "name": "blocktime",
          "type": "uint256"
        },
        {
          "name": "blocknum",
          "type": "uint256"
        }
      ],
      "payable": false,
      "stateMutability": "nonpayable",
      "type": "function"
    },
    {
      "constant": true,
      "inputs": [],
      "name": "RATE3",
      "outputs": [
        {
          "name": "",
          "type": "uint256"
        }
      ],
      "payable": false,
      "stateMutability": "view",
      "type": "function"
    },
    {
      "constant": false,
      "inputs": [
        {
          "name": "newOwner",
          "type": "address"
        }
      ],
      "name": "transferOwnership",
      "outputs": [],
      "payable": false,
      "stateMutability": "nonpayable",
      "type": "function"
    },
    {
      "inputs": [],
      "payable": false,
      "stateMutability": "nonpayable",
      "type": "constructor"
    },
    {
      "anonymous": false,
      "inputs": [
        {
          "indexed": true,
          "name": "to",
          "type": "address"
        },
        {
          "indexed": false,
          "name": "amount",
          "type": "uint256"
        }
      ],
      "name": "Mint",
      "type": "event"
    },
    {
      "anonymous": false,
      "inputs": [],
      "name": "MintFinished",
      "type": "event"
    },
    {
      "anonymous": false,
      "inputs": [
        {
          "indexed": true,
          "name": "previousOwner",
          "type": "address"
        },
        {
          "indexed": true,
          "name": "newOwner",
          "type": "address"
        }
      ],
      "name": "OwnershipTransferred",
      "type": "event"
    },
    {
      "anonymous": false,
      "inputs": [
        {
          "indexed": true,
          "name": "owner",
          "type": "address"
        },
        {
          "indexed": true,
          "name": "spender",
          "type": "address"
        },
        {
          "indexed": false,
          "name": "value",
          "type": "uint256"
        }
      ],
      "name": "Approval",
      "type": "event"
    },
    {
      "anonymous": false,
      "inputs": [
        {
          "indexed": true,
          "name": "from",
          "type": "address"
        },
        {
          "indexed": true,
          "name": "to",
          "type": "address"
        },
        {
          "indexed": false,
          "name": "value",
          "type": "uint256"
        }
      ],
      "name": "Transfer",
      "type": "event"
    },
    {
      "constant": false,
      "inputs": [],
      "name": "lockSupplyNum",
      "outputs": [
        {
          "name": "",
          "type": "uint256"
        },
        {
          "name": "",
          "type": "uint256"
        }
      ],
      "payable": false,
      "stateMutability": "nonpayable",
      "type": "function"
    },
    {
      "constant": false,
      "inputs": [
        {
          "name": "_amount",
          "type": "uint256"
        }
      ],
      "name": "setMintNum",
      "outputs": [
        {
          "name": "",
          "type": "bool"
        }
      ],
      "payable": false,
      "stateMutability": "nonpayable",
      "type": "function"
    },
    {
      "constant": false,
      "inputs": [],
      "name": "setLockMonth",
      "outputs": [],
      "payable": false,
      "stateMutability": "nonpayable",
      "type": "function"
    },
    {
      "constant": false,
      "inputs": [],
      "name": "setLockMonth_2",
      "outputs": [],
      "payable": false,
      "stateMutability": "nonpayable",
      "type": "function"
    },
    {
      "constant": false,
      "inputs": [
        {
          "name": "_amount",
          "type": "uint256"
        }
      ],
      "name": "setMouthEnable",
      "outputs": [],
      "payable": false,
      "stateMutability": "nonpayable",
      "type": "function"
    },
    {
      "constant": false,
      "inputs": [
        {
          "name": "_to",
          "type": "address"
        },
        {
          "name": "_amount",
          "type": "uint256"
        }
      ],
      "name": "mint",
      "outputs": [
        {
          "name": "",
          "type": "bool"
        }
      ],
      "payable": false,
      "stateMutability": "nonpayable",
      "type": "function"
    }
  ],
  "bytecode": "0x60606040526000600460146101000a81548160ff0219169083151502179055506040805190810160405280600a81526020017f4441475420546f6b656e00000000000000000000000000000000000000000000815250600590805190602001906200006c92919062000274565b506040805190810160405280600481526020017f444147540000000000000000000000000000000000000000000000000000000081525060069080519060200190620000ba92919062000274565b506008600760006101000a81548160ff021916908360ff1602179055506301312d00600855610578600a5561051e600b556104d8600c5561049c600d5561045e600e556301312d00600f556000601060006101000a81548160ff0219169083151502179055506000601060016101000a81548160ff0219169083151502179055506000601060026101000a81548160ff0219169083151502179055506000601060036101000a81548160ff0219169083151502179055506000601060046101000a81548160ff02191690831515021790555034156200019857600080fd5b33600460006101000a81548173ffffffffffffffffffffffffffffffffffffffff021916908373ffffffffffffffffffffffffffffffffffffffff160217905550426009819055506305f5e1006008819055506106a4600a81905550610640600b81905550610578600c819055506104d8600d8190555061045e600e8190555060006011819055506008546001819055506008546000803373ffffffffffffffffffffffffffffffffffffffff1673ffffffffffffffffffffffffffffffffffffffff1681526020019081526020016000208190555062000323565b828054600181600116156101000203166002900490600052602060002090601f016020900481019282601f10620002b757805160ff1916838001178555620002e8565b82800160010185558215620002e8579182015b82811115620002e7578251825591602001919060010190620002ca565b5b509050620002f79190620002fb565b5090565b6200032091905b808211156200031c57600081600090555060010162000302565b5090565b90565b61244380620003336000396000f300606060405260043610610180576000357c0100000000000000000000000000000000000000000000000000000000900463ffffffff16806305d2035b1461018557806306fdde03146101b2578063095ea7b31461024057806318160ddd1461029a57806323b872dd146102c357806328990caa1461033c5780632ff2e9dc14610351578063313ce5671461037a57806340c10f19146103a95780634de970fd1461040357806360768d661461042c578063661884631461045557806370a08231146104af57806373357018146104fc5780637ba81196146105255780637d64bcb41461054e5780638da5cb5b1461057b57806395d89b41146105d0578063a4fdccfa1461065e578063a90573e514610687578063a9059cbb146106b7578063c061432514610711578063ccf4b70a1461074c578063cf29f33614610775578063d73dd6231461078a578063dd62ed3e146107e4578063f1921edb14610850578063f2386cd914610887578063f2b40209146108aa578063f2fde38b146108d3575b600080fd5b341561019057600080fd5b61019861090c565b604051808215151515815260200191505060405180910390f35b34156101bd57600080fd5b6101c561091f565b6040518080602001828103825283818151815260200191508051906020019080838360005b838110156102055780820151818401526020810190506101ea565b50505050905090810190601f1680156102325780820380516001836020036101000a031916815260200191505b509250505060405180910390f35b341561024b57600080fd5b610280600480803573ffffffffffffffffffffffffffffffffffffffff169060200190919080359060200190919050506109bd565b604051808215151515815260200191505060405180910390f35b34156102a557600080fd5b6102ad6109f3565b6040518082815260200191505060405180910390f35b34156102ce57600080fd5b610322600480803573ffffffffffffffffffffffffffffffffffffffff1690602001909190803573ffffffffffffffffffffffffffffffffffffffff169060200190919080359060200190919050506109fd565b604051808215151515815260200191505060405180910390f35b341561034757600080fd5b61034f610a35565b005b341561035c57600080fd5b610364610c99565b6040518082815260200191505060405180910390f35b341561038557600080fd5b61038d610c9f565b604051808260ff1660ff16815260200191505060405180910390f35b34156103b457600080fd5b6103e9600480803573ffffffffffffffffffffffffffffffffffffffff16906020019091908035906020019091905050610cb2565b604051808215151515815260200191505060405180910390f35b341561040e57600080fd5b610416610d8c565b6040518082815260200191505060405180910390f35b341561043757600080fd5b61043f610d92565b6040518082815260200191505060405180910390f35b341561046057600080fd5b610495600480803573ffffffffffffffffffffffffffffffffffffffff16906020019091908035906020019091905050610d98565b604051808215151515815260200191505060405180910390f35b34156104ba57600080fd5b6104e6600480803573ffffffffffffffffffffffffffffffffffffffff16906020019091905050611029565b6040518082815260200191505060405180910390f35b341561050757600080fd5b61050f611071565b6040518082815260200191505060405180910390f35b341561053057600080fd5b610538611077565b6040518082815260200191505060405180910390f35b341561055957600080fd5b61056161107d565b604051808215151515815260200191505060405180910390f35b341561058657600080fd5b61058e611145565b604051808273ffffffffffffffffffffffffffffffffffffffff1673ffffffffffffffffffffffffffffffffffffffff16815260200191505060405180910390f35b34156105db57600080fd5b6105e361116b565b6040518080602001828103825283818151815260200191508051906020019080838360005b83811015610623578082015181840152602081019050610608565b50505050905090810190601f1680156106505780820380516001836020036101000a031916815260200191505b509250505060405180910390f35b341561066957600080fd5b610671611209565b6040518082815260200191505060405180910390f35b341561069257600080fd5b61069a61120f565b604051808381526020018281526020019250505060405180910390f35b34156106c257600080fd5b6106f7600480803573ffffffffffffffffffffffffffffffffffffffff16906020019091908035906020019091905050611225565b604051808215151515815260200191505060405180910390f35b341561071c57600080fd5b6107326004808035906020019091905050611239565b604051808215151515815260200191505060405180910390f35b341561075757600080fd5b61075f61124b565b6040518082815260200191505060405180910390f35b341561078057600080fd5b610788611251565b005b341561079557600080fd5b6107ca600480803573ffffffffffffffffffffffffffffffffffffffff169060200190919080359060200190919050506115c6565b604051808215151515815260200191505060405180910390f35b34156107ef57600080fd5b61083a600480803573ffffffffffffffffffffffffffffffffffffffff1690602001909190803573ffffffffffffffffffffffffffffffffffffffff169060200190919050506117c2565b6040518082815260200191505060405180910390f35b341561085b57600080fd5b610863611849565b60405180848152602001838152602001828152602001935050505060405180910390f35b341561089257600080fd5b6108a86004808035906020019091905050611924565b005b34156108b557600080fd5b6108bd6119bd565b6040518082815260200191505060405180910390f35b34156108de57600080fd5b61090a600480803573ffffffffffffffffffffffffffffffffffffffff169060200190919050506119c3565b005b600460149054906101000a900460ff1681565b60058054600181600116156101000203166002900480601f0160208091040260200160405190810160405280929190818152602001828054600181600116156101000203166002900480156109b55780601f1061098a576101008083540402835291602001916109b5565b820191906000526020600020905b81548152906001019060200180831161099857829003601f168201915b505050505081565b600060011515600460149054906101000a900460ff1615151415156109e157600080fd5b6109eb8383611b1b565b905092915050565b6000600154905090565b600060011515600460149054906101000a900460ff161515141515610a2157600080fd5b610a2c848484611c0d565b90509392505050565b635b37a9004210158015610a4c5750635b60878042105b8015610a6b575060001515601060039054906101000a900460ff161515145b15610b00576000601060006101000a81548160ff0219169083151502179055506000601060016101000a81548160ff0219169083151502179055506000601060026101000a81548160ff0219169083151502179055506000601060046101000a81548160ff0219169083151502179055506001601060036101000a81548160ff02191690831515021790555060006011819055505b635b37a9004210158015610b175750635b60878042105b8015610b36575060011515601060039054906101000a900460ff161515145b8015610b455750600f54601154115b15610b66576000601060036101000a81548160ff0219169083151502179055505b635b6087804210158015610b7d5750635b89660042105b8015610b9c575060001515601060049054906101000a900460ff161515145b15610c31576000601060006101000a81548160ff0219169083151502179055506000601060016101000a81548160ff0219169083151502179055506000601060026101000a81548160ff0219169083151502179055506000601060036101000a81548160ff0219169083151502179055506001601060046101000a81548160ff02191690831515021790555060006011819055505b635b6087804210158015610c485750635b89660042105b8015610c67575060011515601060049054906101000a900460ff161515145b8015610c765750600f54601154115b15610c97576000601060046101000a81548160ff0219169083151502179055505b565b60085481565b600760009054906101000a900460ff1681565b600080610cbd611251565b610cc5610a35565b610cce83611924565b60011515601060009054906101000a900460ff1615151480610d03575060011515601060019054906101000a900460ff161515145b80610d21575060011515601060029054906101000a900460ff161515145b80610d3f575060011515601060039054906101000a900460ff161515145b80610d5d575060011515601060049054906101000a900460ff161515145b15610d8057610d6c8484611fc7565b9050610d7783611239565b50809150610d85565b600091505b5092915050565b600d5481565b60095481565b600080600360003373ffffffffffffffffffffffffffffffffffffffff1673ffffffffffffffffffffffffffffffffffffffff16815260200190815260200160002060008573ffffffffffffffffffffffffffffffffffffffff1673ffffffffffffffffffffffffffffffffffffffff16815260200190815260200160002054905080831115610ea9576000600360003373ffffffffffffffffffffffffffffffffffffffff1673ffffffffffffffffffffffffffffffffffffffff16815260200190815260200160002060008673ffffffffffffffffffffffffffffffffffffffff1673ffffffffffffffffffffffffffffffffffffffff16815260200190815260200160002081905550610f3d565b610ebc8382611fdb90919063ffffffff16565b600360003373ffffffffffffffffffffffffffffffffffffffff1673ffffffffffffffffffffffffffffffffffffffff16815260200190815260200160002060008673ffffffffffffffffffffffffffffffffffffffff1673ffffffffffffffffffffffffffffffffffffffff168152602001908152602001600020819055505b8373ffffffffffffffffffffffffffffffffffffffff163373ffffffffffffffffffffffffffffffffffffffff167f8c5be1e5ebec7d5bd14f71427d1e84f3dd0314c0f7b2291e5b200ac8c7c3b925600360003373ffffffffffffffffffffffffffffffffffffffff1673ffffffffffffffffffffffffffffffffffffffff16815260200190815260200160002060008873ffffffffffffffffffffffffffffffffffffffff1673ffffffffffffffffffffffffffffffffffffffff168152602001908152602001600020546040518082815260200191505060405180910390a3600191505092915050565b60008060008373ffffffffffffffffffffffffffffffffffffffff1673ffffffffffffffffffffffffffffffffffffffff168152602001908152602001600020549050919050565b600b5481565b600e5481565b6000600460009054906101000a900473ffffffffffffffffffffffffffffffffffffffff1673ffffffffffffffffffffffffffffffffffffffff163373ffffffffffffffffffffffffffffffffffffffff161415156110db57600080fd5b600460149054906101000a900460ff161515156110f757600080fd5b6001600460146101000a81548160ff0219169083151502179055507fae5184fba832cb2b1f702aca6117b8d265eaf03ad33eb133f19dde0f5920fa0860405160405180910390a16001905090565b600460009054906101000a900473ffffffffffffffffffffffffffffffffffffffff1681565b60068054600181600116156101000203166002900480601f0160208091040260200160405190810160405280929190818152602001828054600181600116156101000203166002900480156112015780601f106111d657610100808354040283529160200191611201565b820191906000526020600020905b8154815290600101906020018083116111e457829003601f168201915b505050505081565b600f5481565b60008060115461121d6109f3565b915091509091565b60006112318383611ff4565b905092915050565b60008160115401601181905550919050565b600a5481565b635af31b0042108015611277575060001515601060009054906101000a900460ff161515145b1561130c576000601060016101000a81548160ff0219169083151502179055506000601060026101000a81548160ff0219169083151502179055506000601060036101000a81548160ff0219169083151502179055506000601060046101000a81548160ff0219169083151502179055506001601060006101000a81548160ff02191690831515021790555060006011819055505b635af31b0042108015611332575060011515601060009054906101000a900460ff161515145b80156113415750600f54601154115b15611362576000601060006101000a81548160ff0219169083151502179055505b635af31b0042101580156113795750635b101c0042105b8015611398575060001515601060019054906101000a900460ff161515145b1561142d576000601060006101000a81548160ff0219169083151502179055506000601060026101000a81548160ff0219169083151502179055506000601060036101000a81548160ff0219169083151502179055506000601060046101000a81548160ff0219169083151502179055506001601060016101000a81548160ff02191690831515021790555060006011819055505b635af31b0042101580156114445750635b101c0042105b8015611463575060011515601060019054906101000a900460ff161515145b80156114725750600f54601154115b15611493576000601060016101000a81548160ff0219169083151502179055505b635b101c0042101580156114aa5750635b37a90042105b80156114c9575060001515601060029054906101000a900460ff161515145b1561155e576000601060006101000a81548160ff0219169083151502179055506000601060016101000a81548160ff0219169083151502179055506000601060036101000a81548160ff0219169083151502179055506000601060046101000a81548160ff0219169083151502179055506001601060026101000a81548160ff02191690831515021790555060006011819055505b635b101c0042101580156115755750635b37a90042105b8015611594575060011515601060029054906101000a900460ff161515145b80156115a35750600f54601154115b156115c4576000601060026101000a81548160ff0219169083151502179055505b565b600061165782600360003373ffffffffffffffffffffffffffffffffffffffff1673ffffffffffffffffffffffffffffffffffffffff16815260200190815260200160002060008673ffffffffffffffffffffffffffffffffffffffff1673ffffffffffffffffffffffffffffffffffffffff1681526020019081526020016000205461221390919063ffffffff16565b600360003373ffffffffffffffffffffffffffffffffffffffff1673ffffffffffffffffffffffffffffffffffffffff16815260200190815260200160002060008573ffffffffffffffffffffffffffffffffffffffff1673ffffffffffffffffffffffffffffffffffffffff168152602001908152602001600020819055508273ffffffffffffffffffffffffffffffffffffffff163373ffffffffffffffffffffffffffffffffffffffff167f8c5be1e5ebec7d5bd14f71427d1e84f3dd0314c0f7b2291e5b200ac8c7c3b925600360003373ffffffffffffffffffffffffffffffffffffffff1673ffffffffffffffffffffffffffffffffffffffff16815260200190815260200160002060008773ffffffffffffffffffffffffffffffffffffffff1673ffffffffffffffffffffffffffffffffffffffff168152602001908152602001600020546040518082815260200191505060405180910390a36001905092915050565b6000600360008473ffffffffffffffffffffffffffffffffffffffff1673ffffffffffffffffffffffffffffffffffffffff16815260200190815260200160002060008373ffffffffffffffffffffffffffffffffffffffff1673ffffffffffffffffffffffffffffffffffffffff16815260200190815260200160002054905092915050565b6000806000809250635aaa988042101580156118695750635ab7c77f4211155b1561187857600a549250611919565b635ab7c78042101580156118905750635ac3a4ff4211155b1561189f57600b549250611918565b635ac4f68042101580156118b75750635ad0d3ff4211155b156118c657600c549250611917565b635ad2258042101580156118de5750635ade02ff4211155b156118ed57600d549250611916565b635ae0a60042101580156119055750635ae5ebff4211155b1561191457600e549250611915565b5b5b5b5b5b429150439050909192565b600f54816011540111156119ba576000601060006101000a81548160ff0219169083151502179055506000601060016101000a81548160ff0219169083151502179055506000601060026101000a81548160ff0219169083151502179055506000601060036101000a81548160ff0219169083151502179055506000601060046101000a81548160ff0219169083151502179055505b50565b600c5481565b600460009054906101000a900473ffffffffffffffffffffffffffffffffffffffff1673ffffffffffffffffffffffffffffffffffffffff163373ffffffffffffffffffffffffffffffffffffffff16141515611a1f57600080fd5b600073ffffffffffffffffffffffffffffffffffffffff168173ffffffffffffffffffffffffffffffffffffffff1614151515611a5b57600080fd5b8073ffffffffffffffffffffffffffffffffffffffff16600460009054906101000a900473ffffffffffffffffffffffffffffffffffffffff1673ffffffffffffffffffffffffffffffffffffffff167f8be0079c531659141344cd1fd0a4f28419497f9722a3daafe3b4186f6b6457e060405160405180910390a380600460006101000a81548173ffffffffffffffffffffffffffffffffffffffff021916908373ffffffffffffffffffffffffffffffffffffffff16021790555050565b600081600360003373ffffffffffffffffffffffffffffffffffffffff1673ffffffffffffffffffffffffffffffffffffffff16815260200190815260200160002060008573ffffffffffffffffffffffffffffffffffffffff1673ffffffffffffffffffffffffffffffffffffffff168152602001908152602001600020819055508273ffffffffffffffffffffffffffffffffffffffff163373ffffffffffffffffffffffffffffffffffffffff167f8c5be1e5ebec7d5bd14f71427d1e84f3dd0314c0f7b2291e5b200ac8c7c3b925846040518082815260200191505060405180910390a36001905092915050565b60008073ffffffffffffffffffffffffffffffffffffffff168373ffffffffffffffffffffffffffffffffffffffff1614151515611c4a57600080fd5b6000808573ffffffffffffffffffffffffffffffffffffffff1673ffffffffffffffffffffffffffffffffffffffff168152602001908152602001600020548211151515611c9757600080fd5b600360008573ffffffffffffffffffffffffffffffffffffffff1673ffffffffffffffffffffffffffffffffffffffff16815260200190815260200160002060003373ffffffffffffffffffffffffffffffffffffffff1673ffffffffffffffffffffffffffffffffffffffff168152602001908152602001600020548211151515611d2257600080fd5b611d73826000808773ffffffffffffffffffffffffffffffffffffffff1673ffffffffffffffffffffffffffffffffffffffff16815260200190815260200160002054611fdb90919063ffffffff16565b6000808673ffffffffffffffffffffffffffffffffffffffff1673ffffffffffffffffffffffffffffffffffffffff16815260200190815260200160002081905550611e06826000808673ffffffffffffffffffffffffffffffffffffffff1673ffffffffffffffffffffffffffffffffffffffff1681526020019081526020016000205461221390919063ffffffff16565b6000808573ffffffffffffffffffffffffffffffffffffffff1673ffffffffffffffffffffffffffffffffffffffff16815260200190815260200160002081905550611ed782600360008773ffffffffffffffffffffffffffffffffffffffff1673ffffffffffffffffffffffffffffffffffffffff16815260200190815260200160002060003373ffffffffffffffffffffffffffffffffffffffff1673ffffffffffffffffffffffffffffffffffffffff16815260200190815260200160002054611fdb90919063ffffffff16565b600360008673ffffffffffffffffffffffffffffffffffffffff1673ffffffffffffffffffffffffffffffffffffffff16815260200190815260200160002060003373ffffffffffffffffffffffffffffffffffffffff1673ffffffffffffffffffffffffffffffffffffffff168152602001908152602001600020819055508273ffffffffffffffffffffffffffffffffffffffff168473ffffffffffffffffffffffffffffffffffffffff167fddf252ad1be2c89b69c2b068fc378daa952ba7f163c4a11628f55a4df523b3ef846040518082815260200191505060405180910390a3600190509392505050565b6000611fd38383612231565b905092915050565b6000828211151515611fe957fe5b818303905092915050565b60008073ffffffffffffffffffffffffffffffffffffffff168373ffffffffffffffffffffffffffffffffffffffff161415151561203157600080fd5b6000803373ffffffffffffffffffffffffffffffffffffffff1673ffffffffffffffffffffffffffffffffffffffff16815260200190815260200160002054821115151561207e57600080fd5b6120cf826000803373ffffffffffffffffffffffffffffffffffffffff1673ffffffffffffffffffffffffffffffffffffffff16815260200190815260200160002054611fdb90919063ffffffff16565b6000803373ffffffffffffffffffffffffffffffffffffffff1673ffffffffffffffffffffffffffffffffffffffff16815260200190815260200160002081905550612162826000808673ffffffffffffffffffffffffffffffffffffffff1673ffffffffffffffffffffffffffffffffffffffff1681526020019081526020016000205461221390919063ffffffff16565b6000808573ffffffffffffffffffffffffffffffffffffffff1673ffffffffffffffffffffffffffffffffffffffff168152602001908152602001600020819055508273ffffffffffffffffffffffffffffffffffffffff163373ffffffffffffffffffffffffffffffffffffffff167fddf252ad1be2c89b69c2b068fc378daa952ba7f163c4a11628f55a4df523b3ef846040518082815260200191505060405180910390a36001905092915050565b600080828401905083811015151561222757fe5b8091505092915050565b6000600460009054906101000a900473ffffffffffffffffffffffffffffffffffffffff1673ffffffffffffffffffffffffffffffffffffffff163373ffffffffffffffffffffffffffffffffffffffff1614151561228f57600080fd5b600460149054906101000a900460ff161515156122ab57600080fd5b6122c08260015461221390919063ffffffff16565b600181905550612317826000808673ffffffffffffffffffffffffffffffffffffffff1673ffffffffffffffffffffffffffffffffffffffff1681526020019081526020016000205461221390919063ffffffff16565b6000808573ffffffffffffffffffffffffffffffffffffffff1673ffffffffffffffffffffffffffffffffffffffff168152602001908152602001600020819055508273ffffffffffffffffffffffffffffffffffffffff167f0f6798a560793a54c3bcfe86a93cde1e73087d944c0ea20544137d4121396885836040518082815260200191505060405180910390a28273ffffffffffffffffffffffffffffffffffffffff16600073ffffffffffffffffffffffffffffffffffffffff167fddf252ad1be2c89b69c2b068fc378daa952ba7f163c4a11628f55a4df523b3ef846040518082815260200191505060405180910390a360019050929150505600a165627a7a72305820e74509eff18a7ac2b490608b990ec2c8eb30306f356fe5b0f0d738786cff6b060029",
  "source": "pragma solidity ^0.4.17;\n\n//import 'zeppelin-solidity/contracts/token/ERC20/MintableToken.sol';\n//import 'zeppelin-solidity/contracts/math/SafeMath.sol';\nimport \"./DagtStandard.sol\";\n\ncontract DagtPri is DagtStandard {\n\nuint public LOCK_NUMS_SUPPLY = 20000000;\n\nbool private LockinMonth0=false;\nbool private LockinMonth1=false;\nbool private LockinMonth2=false;\nbool private LockinMonth3=false;\nbool private LockinMonth4=false;\n\nuint256 mintedNums;\n// new rates\n\n  // Cap per tier for bonus in wei.\n  //uint256 public constant TIER1 =  10000000000000000000000;\n  //uint256 public constant TIER2 =  25000000000000000000000;\n  //uint256 public constant TIER3 =  50000000000000000000000;\n\nfunction DagtPri() public {\n\n    INITIAL_SUPPLY = 100000000;\n    RATE1 =  1700;\n    RATE2 =  1600;\n    RATE3 =  1400;\n    RATE4 =  1240;\n    RATE5 =  1118;\n    mintedNums =0;\n    totalSupply_ = INITIAL_SUPPLY;\n    balances[msg.sender] = INITIAL_SUPPLY;\n}\n\n\n\nfunction lockSupplyNum() returns (uint256,uint256) {\n\n   return  (mintedNums,totalSupply());\n}\nfunction setMintNum(uint256 _amount) returns (bool) {\n  mintedNums =mintedNums+_amount;\n}\n\n\nfunction setLockMonth()  {\n  //2018/5/10 0:0:0 1525881600;2018/6/1 0:0:0 1527782400;2018/7/1 0:0:0 1530374400\n  //2018/8/1 0:0:0 1533052800;2018/9/1 0:0:0 1535731200;2018/9/30 23:59:59 1538323199\n\n  if((now< 1525881600) && (LockinMonth0==false))\n  {\n\n    LockinMonth1=false;\n    LockinMonth2=false;\n    LockinMonth3=false;\n    LockinMonth4=false;\n    LockinMonth0 = true;\n    mintedNums=0;\n  }\n  if((now< 1525881600) && (LockinMonth0==true) && (mintedNums>LOCK_NUMS_SUPPLY))\n  {\n    LockinMonth0 = false;\n  }\n   //e\n    if( (now >=1525881600) && (now< 1527782400) && (LockinMonth1==false))\n    {\n      LockinMonth0 = false;\n      LockinMonth2=false;\n      LockinMonth3=false;\n      LockinMonth4=false;\n      LockinMonth1 = true;\n      mintedNums=0;\n    }\n    if( (now >=1525881600) && (now< 1527782400) && (LockinMonth1==true) && (mintedNums>LOCK_NUMS_SUPPLY))\n    {\n      LockinMonth1 = false;\n    }\n    //\n    if( (now >=1527782400) && (now< 1530374400) && (LockinMonth2==false))\n    {\n      LockinMonth0 = false;\n      LockinMonth1=false;\n      LockinMonth3=false;\n      LockinMonth4=false;\n      LockinMonth2 = true;\n      mintedNums=0;\n    }\n    if((now >=1527782400) && (now< 1530374400) && (LockinMonth2==true) && (mintedNums>LOCK_NUMS_SUPPLY))\n    {\n      LockinMonth2 = false;\n    }\n\n\n  //  return (now,LockinMonth0,LockinMonth1,LockinMonth2,LockinMonth3,LockinMonth4);\n\n}\n\nfunction setLockMonth_2()\n{\n     if( (now >=1530374400) && (now< 1533052800) && (LockinMonth3==false))\n    {\n      LockinMonth0 = false;\n      LockinMonth1=false;\n      LockinMonth2=false;\n      LockinMonth4=false;\n      LockinMonth3 = true;\n      mintedNums=0;\n    }\n    if( (now >=1530374400) && (now< 1533052800) && (LockinMonth3==true) && (mintedNums>LOCK_NUMS_SUPPLY))\n    {\n      LockinMonth3 = false;\n    }\n    //\n    if( now >=1533052800 && now< 1535731200 && LockinMonth4==false)\n    {\n      LockinMonth0 = false;\n      LockinMonth1=false;\n      LockinMonth2=false;\n      LockinMonth3=false;\n\n      LockinMonth4 = true;\n      mintedNums=0;\n    }\n    if(  now >=1533052800 && now< 1535731200 && LockinMonth4==true && mintedNums>LOCK_NUMS_SUPPLY)\n    {\n      LockinMonth4 = false;\n    }\n\n\n}\n\nfunction setMouthEnable(uint256 _amount)\n{\n    if((mintedNums+_amount)>LOCK_NUMS_SUPPLY)\n    {\n      LockinMonth0 = false;\n      LockinMonth1=false;\n      LockinMonth2=false;\n      LockinMonth3=false;\n      LockinMonth4=false;\n    }\n}\n\n\nfunction mint(address _to, uint256 _amount)  public returns (bool)\n{\n     setLockMonth();\n     setLockMonth_2();\n     setMouthEnable(_amount);\n     if(LockinMonth0==true||LockinMonth1==true||LockinMonth2==true||LockinMonth3==true||LockinMonth4==true)\n     {\n       bool ret =  super.mint(_to,_amount);\n       setMintNum(_amount);\n       return ret;\n     }else\n     {\n       return  false;\n     }\n\n}\n\n}\n",
  "sourcePath": "/Users/leo/Projects/github/dagt/contracts/old/DagtPri.sol",
  "compiler": {
    "name": "solc",
    "version": "0.4.19+commit.c4cbbb05.Emscripten.clang"
  },
  "schemaVersion": "2.0.0",
  "updatedAt": "2018-03-15T10:48:13.056Z"
}