{
  "contractName": "DAGTPriToken",
  "abi": [
    {
      "constant": true,
      "inputs": [],
      "name": "name",
      "outputs": [
        {
          "name": "",
          "type": "string"
        }
      ],
      "payable": false,
      "stateMutability": "view",
      "type": "function"
    },
    {
      "constant": false,
      "inputs": [
        {
          "name": "_spender",
          "type": "address"
        },
        {
          "name": "_value",
          "type": "uint256"
        }
      ],
      "name": "approve",
      "outputs": [
        {
          "name": "",
          "type": "bool"
        }
      ],
      "payable": false,
      "stateMutability": "nonpayable",
      "type": "function"
    },
    {
      "constant": true,
      "inputs": [],
      "name": "totalSupply",
      "outputs": [
        {
          "name": "",
          "type": "uint256"
        }
      ],
      "payable": false,
      "stateMutability": "view",
      "type": "function"
    },
    {
      "constant": false,
      "inputs": [
        {
          "name": "_from",
          "type": "address"
        },
        {
          "name": "_to",
          "type": "address"
        },
        {
          "name": "_value",
          "type": "uint256"
        }
      ],
      "name": "transferFrom",
      "outputs": [
        {
          "name": "",
          "type": "bool"
        }
      ],
      "payable": false,
      "stateMutability": "nonpayable",
      "type": "function"
    },
    {
      "constant": true,
      "inputs": [],
      "name": "INITIAL_SUPPLY",
      "outputs": [
        {
          "name": "",
          "type": "uint256"
        }
      ],
      "payable": false,
      "stateMutability": "view",
      "type": "function"
    },
    {
      "constant": true,
      "inputs": [],
      "name": "decimals",
      "outputs": [
        {
          "name": "",
          "type": "uint8"
        }
      ],
      "payable": false,
      "stateMutability": "view",
      "type": "function"
    },
    {
      "constant": true,
      "inputs": [],
      "name": "RATE4",
      "outputs": [
        {
          "name": "",
          "type": "uint256"
        }
      ],
      "payable": false,
      "stateMutability": "view",
      "type": "function"
    },
    {
      "constant": true,
      "inputs": [],
      "name": "initTimeStamp",
      "outputs": [
        {
          "name": "",
          "type": "uint256"
        }
      ],
      "payable": false,
      "stateMutability": "view",
      "type": "function"
    },
    {
      "constant": false,
      "inputs": [
        {
          "name": "_spender",
          "type": "address"
        },
        {
          "name": "_subtractedValue",
          "type": "uint256"
        }
      ],
      "name": "decreaseApproval",
      "outputs": [
        {
          "name": "",
          "type": "bool"
        }
      ],
      "payable": false,
      "stateMutability": "nonpayable",
      "type": "function"
    },
    {
      "constant": true,
      "inputs": [
        {
          "name": "_owner",
          "type": "address"
        }
      ],
      "name": "balanceOf",
      "outputs": [
        {
          "name": "balance",
          "type": "uint256"
        }
      ],
      "payable": false,
      "stateMutability": "view",
      "type": "function"
    },
    {
      "constant": true,
      "inputs": [],
      "name": "RATE2",
      "outputs": [
        {
          "name": "",
          "type": "uint256"
        }
      ],
      "payable": false,
      "stateMutability": "view",
      "type": "function"
    },
    {
      "constant": true,
      "inputs": [],
      "name": "RATE5",
      "outputs": [
        {
          "name": "",
          "type": "uint256"
        }
      ],
      "payable": false,
      "stateMutability": "view",
      "type": "function"
    },
    {
      "constant": true,
      "inputs": [],
      "name": "symbol",
      "outputs": [
        {
          "name": "",
          "type": "string"
        }
      ],
      "payable": false,
      "stateMutability": "view",
      "type": "function"
    },
    {
      "constant": true,
      "inputs": [],
      "name": "LOCK_NUMS_SUPPLY",
      "outputs": [
        {
          "name": "",
          "type": "uint256"
        }
      ],
      "payable": false,
      "stateMutability": "view",
      "type": "function"
    },
    {
      "constant": true,
      "inputs": [],
      "name": "RATE1",
      "outputs": [
        {
          "name": "",
          "type": "uint256"
        }
      ],
      "payable": false,
      "stateMutability": "view",
      "type": "function"
    },
    {
      "constant": false,
      "inputs": [
        {
          "name": "_spender",
          "type": "address"
        },
        {
          "name": "_addedValue",
          "type": "uint256"
        }
      ],
      "name": "increaseApproval",
      "outputs": [
        {
          "name": "",
          "type": "bool"
        }
      ],
      "payable": false,
      "stateMutability": "nonpayable",
      "type": "function"
    },
    {
      "constant": true,
      "inputs": [
        {
          "name": "_owner",
          "type": "address"
        },
        {
          "name": "_spender",
          "type": "address"
        }
      ],
      "name": "allowance",
      "outputs": [
        {
          "name": "",
          "type": "uint256"
        }
      ],
      "payable": false,
      "stateMutability": "view",
      "type": "function"
    },
    {
      "constant": false,
      "inputs": [],
      "name": "getDAGTRate",
      "outputs": [
        {
          "name": "rate",
          "type": "uint256"
        },
        {
          "name": "blocktime",
          "type": "uint256"
        },
        {
          "name": "blocknum",
          "type": "uint256"
        }
      ],
      "payable": false,
      "stateMutability": "nonpayable",
      "type": "function"
    },
    {
      "constant": true,
      "inputs": [],
      "name": "RATE3",
      "outputs": [
        {
          "name": "",
          "type": "uint256"
        }
      ],
      "payable": false,
      "stateMutability": "view",
      "type": "function"
    },
    {
      "inputs": [],
      "payable": false,
      "stateMutability": "nonpayable",
      "type": "constructor"
    },
    {
      "anonymous": false,
      "inputs": [
        {
          "indexed": true,
          "name": "owner",
          "type": "address"
        },
        {
          "indexed": true,
          "name": "spender",
          "type": "address"
        },
        {
          "indexed": false,
          "name": "value",
          "type": "uint256"
        }
      ],
      "name": "Approval",
      "type": "event"
    },
    {
      "anonymous": false,
      "inputs": [
        {
          "indexed": true,
          "name": "from",
          "type": "address"
        },
        {
          "indexed": true,
          "name": "to",
          "type": "address"
        },
        {
          "indexed": false,
          "name": "value",
          "type": "uint256"
        }
      ],
      "name": "Transfer",
      "type": "event"
    },
    {
      "constant": false,
      "inputs": [
        {
          "name": "_to",
          "type": "address"
        },
        {
          "name": "_value",
          "type": "uint256"
        }
      ],
      "name": "transfer",
      "outputs": [
        {
          "name": "",
          "type": "bool"
        }
      ],
      "payable": false,
      "stateMutability": "nonpayable",
      "type": "function"
    },
    {
      "constant": false,
      "inputs": [],
      "name": "setLockMonth",
      "outputs": [],
      "payable": false,
      "stateMutability": "nonpayable",
      "type": "function"
    },
    {
      "constant": false,
      "inputs": [],
      "name": "setLockMonth_2",
      "outputs": [],
      "payable": false,
      "stateMutability": "nonpayable",
      "type": "function"
    },
    {
      "constant": false,
      "inputs": [
        {
          "name": "_amount",
          "type": "uint256"
        }
      ],
      "name": "setMouthEnable",
      "outputs": [],
      "payable": false,
      "stateMutability": "nonpayable",
      "type": "function"
    },
    {
      "constant": false,
      "inputs": [],
      "name": "lockSupplyNum",
      "outputs": [
        {
          "name": "",
          "type": "uint256"
        },
        {
          "name": "",
          "type": "uint256"
        }
      ],
      "payable": false,
      "stateMutability": "nonpayable",
      "type": "function"
    },
    {
      "constant": false,
      "inputs": [
        {
          "name": "_amount",
          "type": "uint256"
        }
      ],
      "name": "setMintNum",
      "outputs": [
        {
          "name": "",
          "type": "bool"
        }
      ],
      "payable": false,
      "stateMutability": "nonpayable",
      "type": "function"
    }
  ],
  "bytecode": "0x60606040526040805190810160405280600a81526020017f4441475420546f6b656e0000000000000000000000000000000000000000000081525060009080519060200190620000519291906200021e565b506040805190810160405280600481526020017f4441475400000000000000000000000000000000000000000000000000000000815250600190805190602001906200009f9291906200021e565b506008600260006101000a81548160ff021916908360ff1602179055506301312d0060035561057860055561051e6006556104d860075561049c60085561045e6009556301312d00600e556000600f60006101000a81548160ff0219169083151502179055506000600f60016101000a81548160ff0219169083151502179055506000600f60026101000a81548160ff0219169083151502179055506000600f60036101000a81548160ff0219169083151502179055506000600f60046101000a81548160ff021916908315150217905550600060105534156200018257600080fd5b426004819055506305f5e1006003819055506106a46005819055506106406006819055506105786007819055506104d860088190555061045e6009819055506000601081905550600354600b81905550600354600a60003373ffffffffffffffffffffffffffffffffffffffff1673ffffffffffffffffffffffffffffffffffffffff16815260200190815260200160002081905550620002cd565b828054600181600116156101000203166002900490600052602060002090601f016020900481019282601f106200026157805160ff191683800117855562000292565b8280016001018555821562000292579182015b828111156200029157825182559160200191906001019062000274565b5b509050620002a19190620002a5565b5090565b620002ca91905b80821115620002c6576000816000905550600101620002ac565b5090565b90565b611e0f80620002dd6000396000f300606060405260043610610149576000357c0100000000000000000000000000000000000000000000000000000000900463ffffffff16806306fdde031461014e578063095ea7b3146101dc57806318160ddd1461023657806323b872dd1461025f57806328990caa146102d85780632ff2e9dc146102ed578063313ce567146103165780634de970fd1461034557806360768d661461036e578063661884631461039757806370a08231146103f1578063733570181461043e5780637ba811961461046757806395d89b4114610490578063a4fdccfa1461051e578063a90573e514610547578063a9059cbb14610577578063c0614325146105d1578063ccf4b70a1461060c578063cf29f33614610635578063d73dd6231461064a578063dd62ed3e146106a4578063f1921edb14610710578063f2386cd914610747578063f2b402091461076a575b600080fd5b341561015957600080fd5b610161610793565b6040518080602001828103825283818151815260200191508051906020019080838360005b838110156101a1578082015181840152602081019050610186565b50505050905090810190601f1680156101ce5780820380516001836020036101000a031916815260200191505b509250505060405180910390f35b34156101e757600080fd5b61021c600480803573ffffffffffffffffffffffffffffffffffffffff16906020019091908035906020019091905050610831565b604051808215151515815260200191505060405180910390f35b341561024157600080fd5b610249610923565b6040518082815260200191505060405180910390f35b341561026a57600080fd5b6102be600480803573ffffffffffffffffffffffffffffffffffffffff1690602001909190803573ffffffffffffffffffffffffffffffffffffffff1690602001909190803590602001909190505061092d565b604051808215151515815260200191505060405180910390f35b34156102e357600080fd5b6102eb610cec565b005b34156102f857600080fd5b610300610f50565b6040518082815260200191505060405180910390f35b341561032157600080fd5b610329610f56565b604051808260ff1660ff16815260200191505060405180910390f35b341561035057600080fd5b610358610f69565b6040518082815260200191505060405180910390f35b341561037957600080fd5b610381610f6f565b6040518082815260200191505060405180910390f35b34156103a257600080fd5b6103d7600480803573ffffffffffffffffffffffffffffffffffffffff16906020019091908035906020019091905050610f75565b604051808215151515815260200191505060405180910390f35b34156103fc57600080fd5b610428600480803573ffffffffffffffffffffffffffffffffffffffff16906020019091905050611206565b6040518082815260200191505060405180910390f35b341561044957600080fd5b61045161124f565b6040518082815260200191505060405180910390f35b341561047257600080fd5b61047a611255565b6040518082815260200191505060405180910390f35b341561049b57600080fd5b6104a361125b565b6040518080602001828103825283818151815260200191508051906020019080838360005b838110156104e35780820151818401526020810190506104c8565b50505050905090810190601f1680156105105780820380516001836020036101000a031916815260200191505b509250505060405180910390f35b341561052957600080fd5b6105316112f9565b6040518082815260200191505060405180910390f35b341561055257600080fd5b61055a6112ff565b604051808381526020018281526020019250505060405180910390f35b341561058257600080fd5b6105b7600480803573ffffffffffffffffffffffffffffffffffffffff16906020019091908035906020019091905050611315565b604051808215151515815260200191505060405180910390f35b34156105dc57600080fd5b6105f260048080359060200190919050506113ef565b604051808215151515815260200191505060405180910390f35b341561061757600080fd5b61061f611401565b6040518082815260200191505060405180910390f35b341561064057600080fd5b610648611407565b005b341561065557600080fd5b61068a600480803573ffffffffffffffffffffffffffffffffffffffff1690602001909190803590602001909190505061177c565b604051808215151515815260200191505060405180910390f35b34156106af57600080fd5b6106fa600480803573ffffffffffffffffffffffffffffffffffffffff1690602001909190803573ffffffffffffffffffffffffffffffffffffffff16906020019091905050611978565b6040518082815260200191505060405180910390f35b341561071b57600080fd5b6107236119ff565b60405180848152602001838152602001828152602001935050505060405180910390f35b341561075257600080fd5b6107686004808035906020019091905050611ada565b005b341561077557600080fd5b61077d611b73565b6040518082815260200191505060405180910390f35b60008054600181600116156101000203166002900480601f0160208091040260200160405190810160405280929190818152602001828054600181600116156101000203166002900480156108295780601f106107fe57610100808354040283529160200191610829565b820191906000526020600020905b81548152906001019060200180831161080c57829003601f168201915b505050505081565b600081600d60003373ffffffffffffffffffffffffffffffffffffffff1673ffffffffffffffffffffffffffffffffffffffff16815260200190815260200160002060008573ffffffffffffffffffffffffffffffffffffffff1673ffffffffffffffffffffffffffffffffffffffff168152602001908152602001600020819055508273ffffffffffffffffffffffffffffffffffffffff163373ffffffffffffffffffffffffffffffffffffffff167f8c5be1e5ebec7d5bd14f71427d1e84f3dd0314c0f7b2291e5b200ac8c7c3b925846040518082815260200191505060405180910390a36001905092915050565b6000600b54905090565b60008073ffffffffffffffffffffffffffffffffffffffff168373ffffffffffffffffffffffffffffffffffffffff161415151561096a57600080fd5b600a60008573ffffffffffffffffffffffffffffffffffffffff1673ffffffffffffffffffffffffffffffffffffffff1681526020019081526020016000205482111515156109b857600080fd5b600d60008573ffffffffffffffffffffffffffffffffffffffff1673ffffffffffffffffffffffffffffffffffffffff16815260200190815260200160002060003373ffffffffffffffffffffffffffffffffffffffff1673ffffffffffffffffffffffffffffffffffffffff168152602001908152602001600020548211151515610a4357600080fd5b610a9582600a60008773ffffffffffffffffffffffffffffffffffffffff1673ffffffffffffffffffffffffffffffffffffffff16815260200190815260200160002054611b7990919063ffffffff16565b600a60008673ffffffffffffffffffffffffffffffffffffffff1673ffffffffffffffffffffffffffffffffffffffff16815260200190815260200160002081905550610b2a82600a60008673ffffffffffffffffffffffffffffffffffffffff1673ffffffffffffffffffffffffffffffffffffffff16815260200190815260200160002054611b9290919063ffffffff16565b600a60008573ffffffffffffffffffffffffffffffffffffffff1673ffffffffffffffffffffffffffffffffffffffff16815260200190815260200160002081905550610bfc82600d60008773ffffffffffffffffffffffffffffffffffffffff1673ffffffffffffffffffffffffffffffffffffffff16815260200190815260200160002060003373ffffffffffffffffffffffffffffffffffffffff1673ffffffffffffffffffffffffffffffffffffffff16815260200190815260200160002054611b7990919063ffffffff16565b600d60008673ffffffffffffffffffffffffffffffffffffffff1673ffffffffffffffffffffffffffffffffffffffff16815260200190815260200160002060003373ffffffffffffffffffffffffffffffffffffffff1673ffffffffffffffffffffffffffffffffffffffff168152602001908152602001600020819055508273ffffffffffffffffffffffffffffffffffffffff168473ffffffffffffffffffffffffffffffffffffffff167fddf252ad1be2c89b69c2b068fc378daa952ba7f163c4a11628f55a4df523b3ef846040518082815260200191505060405180910390a3600190509392505050565b635b37a9004210158015610d035750635b60878042105b8015610d22575060001515600f60039054906101000a900460ff161515145b15610db7576000600f60006101000a81548160ff0219169083151502179055506000600f60016101000a81548160ff0219169083151502179055506000600f60026101000a81548160ff0219169083151502179055506000600f60046101000a81548160ff0219169083151502179055506001600f60036101000a81548160ff02191690831515021790555060006010819055505b635b37a9004210158015610dce5750635b60878042105b8015610ded575060011515600f60039054906101000a900460ff161515145b8015610dfc5750600e54601054115b15610e1d576000600f60036101000a81548160ff0219169083151502179055505b635b6087804210158015610e345750635b89660042105b8015610e53575060001515600f60049054906101000a900460ff161515145b15610ee8576000600f60006101000a81548160ff0219169083151502179055506000600f60016101000a81548160ff0219169083151502179055506000600f60026101000a81548160ff0219169083151502179055506000600f60036101000a81548160ff0219169083151502179055506001600f60046101000a81548160ff02191690831515021790555060006010819055505b635b6087804210158015610eff5750635b89660042105b8015610f1e575060011515600f60049054906101000a900460ff161515145b8015610f2d5750600e54601054115b15610f4e576000600f60046101000a81548160ff0219169083151502179055505b565b60035481565b600260009054906101000a900460ff1681565b60085481565b60045481565b600080600d60003373ffffffffffffffffffffffffffffffffffffffff1673ffffffffffffffffffffffffffffffffffffffff16815260200190815260200160002060008573ffffffffffffffffffffffffffffffffffffffff1673ffffffffffffffffffffffffffffffffffffffff16815260200190815260200160002054905080831115611086576000600d60003373ffffffffffffffffffffffffffffffffffffffff1673ffffffffffffffffffffffffffffffffffffffff16815260200190815260200160002060008673ffffffffffffffffffffffffffffffffffffffff1673ffffffffffffffffffffffffffffffffffffffff1681526020019081526020016000208190555061111a565b6110998382611b7990919063ffffffff16565b600d60003373ffffffffffffffffffffffffffffffffffffffff1673ffffffffffffffffffffffffffffffffffffffff16815260200190815260200160002060008673ffffffffffffffffffffffffffffffffffffffff1673ffffffffffffffffffffffffffffffffffffffff168152602001908152602001600020819055505b8373ffffffffffffffffffffffffffffffffffffffff163373ffffffffffffffffffffffffffffffffffffffff167f8c5be1e5ebec7d5bd14f71427d1e84f3dd0314c0f7b2291e5b200ac8c7c3b925600d60003373ffffffffffffffffffffffffffffffffffffffff1673ffffffffffffffffffffffffffffffffffffffff16815260200190815260200160002060008873ffffffffffffffffffffffffffffffffffffffff1673ffffffffffffffffffffffffffffffffffffffff168152602001908152602001600020546040518082815260200191505060405180910390a3600191505092915050565b6000600a60008373ffffffffffffffffffffffffffffffffffffffff1673ffffffffffffffffffffffffffffffffffffffff168152602001908152602001600020549050919050565b60065481565b60095481565b60018054600181600116156101000203166002900480601f0160208091040260200160405190810160405280929190818152602001828054600181600116156101000203166002900480156112f15780601f106112c6576101008083540402835291602001916112f1565b820191906000526020600020905b8154815290600101906020018083116112d457829003601f168201915b505050505081565b600e5481565b60008060105461130d610923565b915091509091565b600080611320611407565b611328610cec565b61133183611ada565b60011515600f60009054906101000a900460ff1615151480611366575060011515600f60019054906101000a900460ff161515145b80611384575060011515600f60029054906101000a900460ff161515145b806113a2575060011515600f60039054906101000a900460ff161515145b806113c0575060011515600f60049054906101000a900460ff161515145b156113e3576113cf8484611bb0565b90506113da836113ef565b508091506113e8565b600091505b5092915050565b60008160105401601081905550919050565b60055481565b635af31b004210801561142d575060001515600f60009054906101000a900460ff161515145b156114c2576000600f60016101000a81548160ff0219169083151502179055506000600f60026101000a81548160ff0219169083151502179055506000600f60036101000a81548160ff0219169083151502179055506000600f60046101000a81548160ff0219169083151502179055506001600f60006101000a81548160ff02191690831515021790555060006010819055505b635af31b00421080156114e8575060011515600f60009054906101000a900460ff161515145b80156114f75750600e54601054115b15611518576000600f60006101000a81548160ff0219169083151502179055505b635af31b00421015801561152f5750635b101c0042105b801561154e575060001515600f60019054906101000a900460ff161515145b156115e3576000600f60006101000a81548160ff0219169083151502179055506000600f60026101000a81548160ff0219169083151502179055506000600f60036101000a81548160ff0219169083151502179055506000600f60046101000a81548160ff0219169083151502179055506001600f60016101000a81548160ff02191690831515021790555060006010819055505b635af31b0042101580156115fa5750635b101c0042105b8015611619575060011515600f60019054906101000a900460ff161515145b80156116285750600e54601054115b15611649576000600f60016101000a81548160ff0219169083151502179055505b635b101c0042101580156116605750635b37a90042105b801561167f575060001515600f60029054906101000a900460ff161515145b15611714576000600f60006101000a81548160ff0219169083151502179055506000600f60016101000a81548160ff0219169083151502179055506000600f60036101000a81548160ff0219169083151502179055506000600f60046101000a81548160ff0219169083151502179055506001600f60026101000a81548160ff02191690831515021790555060006010819055505b635b101c00421015801561172b5750635b37a90042105b801561174a575060011515600f60029054906101000a900460ff161515145b80156117595750600e54601054115b1561177a576000600f60026101000a81548160ff0219169083151502179055505b565b600061180d82600d60003373ffffffffffffffffffffffffffffffffffffffff1673ffffffffffffffffffffffffffffffffffffffff16815260200190815260200160002060008673ffffffffffffffffffffffffffffffffffffffff1673ffffffffffffffffffffffffffffffffffffffff16815260200190815260200160002054611b9290919063ffffffff16565b600d60003373ffffffffffffffffffffffffffffffffffffffff1673ffffffffffffffffffffffffffffffffffffffff16815260200190815260200160002060008573ffffffffffffffffffffffffffffffffffffffff1673ffffffffffffffffffffffffffffffffffffffff168152602001908152602001600020819055508273ffffffffffffffffffffffffffffffffffffffff163373ffffffffffffffffffffffffffffffffffffffff167f8c5be1e5ebec7d5bd14f71427d1e84f3dd0314c0f7b2291e5b200ac8c7c3b925600d60003373ffffffffffffffffffffffffffffffffffffffff1673ffffffffffffffffffffffffffffffffffffffff16815260200190815260200160002060008773ffffffffffffffffffffffffffffffffffffffff1673ffffffffffffffffffffffffffffffffffffffff168152602001908152602001600020546040518082815260200191505060405180910390a36001905092915050565b6000600d60008473ffffffffffffffffffffffffffffffffffffffff1673ffffffffffffffffffffffffffffffffffffffff16815260200190815260200160002060008373ffffffffffffffffffffffffffffffffffffffff1673ffffffffffffffffffffffffffffffffffffffff16815260200190815260200160002054905092915050565b6000806000809250635aaa98804210158015611a1f5750635ab7c77f4211155b15611a2e576005549250611acf565b635ab7c7804210158015611a465750635ac3a4ff4211155b15611a55576006549250611ace565b635ac4f6804210158015611a6d5750635ad0d3ff4211155b15611a7c576007549250611acd565b635ad225804210158015611a945750635ade02ff4211155b15611aa3576008549250611acc565b635ae0a6004210158015611abb5750635ae5ebff4211155b15611aca576009549250611acb565b5b5b5b5b5b429150439050909192565b600e5481601054011115611b70576000600f60006101000a81548160ff0219169083151502179055506000600f60016101000a81548160ff0219169083151502179055506000600f60026101000a81548160ff0219169083151502179055506000600f60036101000a81548160ff0219169083151502179055506000600f60046101000a81548160ff0219169083151502179055505b50565b60075481565b6000611b8783831115611dd4565b818303905092915050565b6000808284019050611ba684821015611dd4565b8091505092915050565b60008073ffffffffffffffffffffffffffffffffffffffff168373ffffffffffffffffffffffffffffffffffffffff1614151515611bed57600080fd5b600a60003373ffffffffffffffffffffffffffffffffffffffff1673ffffffffffffffffffffffffffffffffffffffff168152602001908152602001600020548211151515611c3b57600080fd5b611c8d82600a60003373ffffffffffffffffffffffffffffffffffffffff1673ffffffffffffffffffffffffffffffffffffffff16815260200190815260200160002054611b7990919063ffffffff16565b600a60003373ffffffffffffffffffffffffffffffffffffffff1673ffffffffffffffffffffffffffffffffffffffff16815260200190815260200160002081905550611d2282600a60008673ffffffffffffffffffffffffffffffffffffffff1673ffffffffffffffffffffffffffffffffffffffff16815260200190815260200160002054611b9290919063ffffffff16565b600a60008573ffffffffffffffffffffffffffffffffffffffff1673ffffffffffffffffffffffffffffffffffffffff168152602001908152602001600020819055508273ffffffffffffffffffffffffffffffffffffffff163373ffffffffffffffffffffffffffffffffffffffff167fddf252ad1be2c89b69c2b068fc378daa952ba7f163c4a11628f55a4df523b3ef846040518082815260200191505060405180910390a36001905092915050565b801515611de057600080fd5b505600a165627a7a7230582018af85e28663a1d1eab28d8c548951837b813b73f25f95d4c44077225bb765b00029",
  "source": "pragma solidity ^0.4.11;\n\n\n/**\n * Math operations with safety checks\n */\nlibrary SafeMath {\n  function mul(uint a, uint b) internal returns (uint) {\n    uint c = a * b;\n    assert(a == 0 || c / a == b);\n    return c;\n  }\n\n  function div(uint a, uint b) internal returns (uint) {\n    // assert(b > 0); // Solidity automatically throws when dividing by 0\n    uint c = a / b;\n    // assert(a == b * c + a % b); // There is no case in which this doesn't hold\n    return c;\n  }\n\n  function sub(uint a, uint b) internal returns (uint) {\n    assert(b <= a);\n    return a - b;\n  }\n\n  function add(uint a, uint b) internal returns (uint) {\n    uint c = a + b;\n    assert(c >= a);\n    return c;\n  }\n\n  function max64(uint64 a, uint64 b) internal constant returns (uint64) {\n    return a >= b ? a : b;\n  }\n\n  function min64(uint64 a, uint64 b) internal constant returns (uint64) {\n    return a < b ? a : b;\n  }\n\n  function max256(uint256 a, uint256 b) internal constant returns (uint256) {\n    return a >= b ? a : b;\n  }\n\n  function min256(uint256 a, uint256 b) internal constant returns (uint256) {\n    return a < b ? a : b;\n  }\n\n  function assert(bool assertion) internal {\n    if (!assertion) {\n      throw;\n    }\n  }\n}\n\n\n/**\n * @title ERC20Basic\n * @dev Simpler version of ERC20 interface\n * @dev see https://github.com/ethereum/EIPs/issues/20\n */\ncontract ERC20Basic {\n  function totalSupply() public view returns (uint256);\n  function balanceOf(address who) public view returns (uint256);\n  function transfer(address to, uint256 value) public returns (bool);\n  event Transfer(address indexed from, address indexed to, uint256 value);\n}\n\n\n\n/**\n * @title Basic token\n * @dev Basic version of StandardToken, with no allowances.\n */\ncontract BasicToken is ERC20Basic {\n  using SafeMath for uint;\n\n  mapping(address => uint) balances;\n\n uint256 totalSupply_;\n  uint256 mintedSupply;\n//  bool priRaise=true;\n  /**\n  * @dev total number of tokens in existence\n  */\n  function totalSupply() public view returns (uint256) {\n    return totalSupply_;\n  }\n\n\n\n  /**\n  * @dev transfer token for a specified address\n  * @param _to The address to transfer to.\n  * @param _value The amount to be transferred.\n  */\n  function transfer(address _to, uint256 _value) public returns (bool) {\n    require(_to != address(0));\n    require(_value <= balances[msg.sender]);\n\n    // SafeMath.sub will throw if there is not enough balance.\n    balances[msg.sender] = balances[msg.sender].sub(_value);\n    balances[_to] = balances[_to].add(_value);\n\n    Transfer(msg.sender, _to, _value);\n    return true;\n  }\n\n  /**\n  * @dev Gets the balance of the specified address.\n  * @param _owner The address to query the the balance of.\n  * @return An uint256 representing the amount owned by the passed address.\n  */\n  function balanceOf(address _owner) public view returns (uint256 balance) {\n    return balances[_owner];\n  }\n\n}\n\n\n\n\n\n/**\n * @title ERC20 interface\n * @dev see https://github.com/ethereum/EIPs/issues/20\n */\ncontract ERC20 is ERC20Basic {\n  function allowance(address owner, address spender) public view returns (uint256);\n  function transferFrom(address from, address to, uint256 value) public returns (bool);\n  function approve(address spender, uint256 value) public returns (bool);\n  event Approval(address indexed owner, address indexed spender, uint256 value);\n}\n\n\n\n\n\n/**\n * @title Standard ERC20 token\n *\n * @dev Implementation of the basic standard token.\n * @dev https://github.com/ethereum/EIPs/issues/20\n * @dev Based on code by FirstBlood: https://github.com/Firstbloodio/token/blob/master/smart_contract/FirstBloodToken.sol\n */\ncontract StandardToken is ERC20, BasicToken {\n\n  mapping (address => mapping (address => uint256)) internal allowed;\n\n\n  /**\n   * @dev Transfer tokens from one address to another\n   * @param _from address The address which you want to send tokens from\n   * @param _to address The address which you want to transfer to\n   * @param _value uint256 the amount of tokens to be transferred\n   */\n  function transferFrom(address _from, address _to, uint256 _value) public returns (bool) {\n    require(_to != address(0));\n    require(_value <= balances[_from]);\n    require(_value <= allowed[_from][msg.sender]);\n\n    balances[_from] = balances[_from].sub(_value);\n    balances[_to] = balances[_to].add(_value);\n    allowed[_from][msg.sender] = allowed[_from][msg.sender].sub(_value);\n    Transfer(_from, _to, _value);\n    return true;\n  }\n\n  /**\n   * @dev Approve the passed address to spend the specified amount of tokens on behalf of msg.sender.\n   *\n   * Beware that changing an allowance with this method brings the risk that someone may use both the old\n   * and the new allowance by unfortunate transaction ordering. One possible solution to mitigate this\n   * race condition is to first reduce the spender's allowance to 0 and set the desired value afterwards:\n   * https://github.com/ethereum/EIPs/issues/20#issuecomment-263524729\n   * @param _spender The address which will spend the funds.\n   * @param _value The amount of tokens to be spent.\n   */\n  function approve(address _spender, uint256 _value) public returns (bool) {\n    allowed[msg.sender][_spender] = _value;\n    Approval(msg.sender, _spender, _value);\n    return true;\n  }\n\n  /**\n   * @dev Function to check the amount of tokens that an owner allowed to a spender.\n   * @param _owner address The address which owns the funds.\n   * @param _spender address The address which will spend the funds.\n   * @return A uint256 specifying the amount of tokens still available for the spender.\n   */\n  function allowance(address _owner, address _spender) public view returns (uint256) {\n    return allowed[_owner][_spender];\n  }\n\n  /**\n   * @dev Increase the amount of tokens that an owner allowed to a spender.\n   *\n   * approve should be called when allowed[_spender] == 0. To increment\n   * allowed value is better to use this function to avoid 2 calls (and wait until\n   * the first transaction is mined)\n   * From MonolithDAO Token.sol\n   * @param _spender The address which will spend the funds.\n   * @param _addedValue The amount of tokens to increase the allowance by.\n   */\n  function increaseApproval(address _spender, uint _addedValue) public returns (bool) {\n    allowed[msg.sender][_spender] = allowed[msg.sender][_spender].add(_addedValue);\n    Approval(msg.sender, _spender, allowed[msg.sender][_spender]);\n    return true;\n  }\n\n  /**\n   * @dev Decrease the amount of tokens that an owner allowed to a spender.\n   *\n   * approve should be called when allowed[_spender] == 0. To decrement\n   * allowed value is better to use this function to avoid 2 calls (and wait until\n   * the first transaction is mined)\n   * From MonolithDAO Token.sol\n   * @param _spender The address which will spend the funds.\n   * @param _subtractedValue The amount of tokens to decrease the allowance by.\n   */\n  function decreaseApproval(address _spender, uint _subtractedValue) public returns (bool) {\n    uint oldValue = allowed[msg.sender][_spender];\n    if (_subtractedValue > oldValue) {\n      allowed[msg.sender][_spender] = 0;\n    } else {\n      allowed[msg.sender][_spender] = oldValue.sub(_subtractedValue);\n    }\n    Approval(msg.sender, _spender, allowed[msg.sender][_spender]);\n    return true;\n  }\n\n}\n\ncontract BaseDagt {\n\n  string public name = \"DAGT Token\";\n  string public symbol = \"DAGT\";\n  uint8   public decimals = 8;\n  uint    public INITIAL_SUPPLY = 20000000;\n  uint256  public initTimeStamp;\n\n//  uint256 public constant RATE1 =  1400;\n  uint256 public  RATE1 =  1400;\n  uint256 public  RATE2 =  1310;\n  uint256 public  RATE3 =  1240;\n  uint256 public  RATE4 =  1180;\n  uint256 public  RATE5 =  1118;\n  // new rates\n\n\n    // Cap per tier for bonus in wei.\n    //uint256 public constant TIER1 =  10000000000000000000000;\n    //uint256 public constant TIER2 =  25000000000000000000000;\n    //uint256 public constant TIER3 =  50000000000000000000000;\n\n\n  function BaseDagt() {\n\n    initTimeStamp = now;\n\n  }\n\n\n\n  function getDAGTRate() returns (uint256 rate ,uint blocktime,uint256 blocknum) {\n    //uint256  timeRate1_1 = 1521129600;// ToTimestamp(2018, 3, 16, 0, 0, 0);\n    //uint256  timeRate1_2 = 1521993599;// ToTimestamp(2018, 3, 25, 23, 59, 59);\n  //  require(timeRate1_1 >= initTimeStamp);\n    //transfer(msg.sender, 0);\n    //uint256 startNumbers_1 = (1521129600-initTimeStamp)/15;\n    //uint256 endNumbers_1 =(1521993599-initTimeStamp)/15;\n\n    //2018.3.26~2018.4.4\n    //  uint256  timeRate2_1 = 1521993600;\n   //  uint256  timeRate2_2 = 1522771199;\n    //uint256 startNumbers_2 = (1521993600-initTimeStamp)/15;\n    //uint256 endNumbers_2 =(1522771199-initTimeStamp)/15;\n\n    //2018.4.5~2018.4.14\n    //uint256  timeRate3_1 = 1522857600;\n   //  uint256  timeRate3_2 = 1523635199;\n\n    //uint256 startNumbers_3 = (1522857600-initTimeStamp)/15;\n    //uint256 endNumbers_3 =(1523635199-initTimeStamp)/15;\n\n    //2018.4.15~2018.4.24\n    //uint256  timeRate4_1 = 1523721600;\n    //uint256  timeRate4_2 = 1524499199;\n    //uint256 startNumbers_4 = (1523721600-initTimeStamp)/15;\n    //uint256 endNumbers_4 =(1524499199-initTimeStamp)/15;\n\n    //2018.4.262018.4.30\n    //uint256  timeRate5_1 = 1524672000;\n    //uint256  timeRate5_2 = 1525017599;\n\n  //  uint256 startNumbers_5 = (1524672000-initTimeStamp)/15;\n    //uint256 endNumbers_5 =(1525017599-initTimeStamp)/15;\n    rate = 0;\n  /* */\n    /*if((block.number>=startNumbers_1) && (block.number<=endNumbers_1) )\n    {\n        rate = RATE1;\n    }else if((block.number>=startNumbers_2) && (block.number<=endNumbers_2))\n    {\n        rate = RATE2;*/\n    if((now>=1521129600) && (now<=1521993599) )\n     {\n       rate = RATE1;\n     }else if((now>=1521993600) && (now<=1522771199) )\n    {\n        rate = RATE2;\n    }else if((now>=1522857600) && (now<=1523635199) )\n    {\n      rate = RATE3;\n    }else if((now>=1523721600) && (now<=1524499199) )\n    {\n      rate = RATE4;\n    }else if((now>=1524672000) && (now<=1525017599) )\n    {\n      rate = RATE5;\n    }else\n    {\n    //  throw;\n    }\n    blocktime = block.timestamp;\n    blocknum = block.number;\n    //return rate;\n  }\n}\n\n\n\n\n\n/// @title HPB Protocol Token.\n/// For more information about this token sale, please visit https://gxn.io\n/// @author Arnold - <arnold@gxn.io>, Bob - <bob@gxn.io>.\ncontract DAGTPriToken is BaseDagt, StandardToken {\n\n    uint public LOCK_NUMS_SUPPLY = 20000000;\n\nbool private LockinMonth0=false;\nbool private LockinMonth1=false;\nbool private LockinMonth2=false;\nbool private LockinMonth3=false;\nbool private LockinMonth4=false;\n\nuint256 mintedNums=0;\n// new rates\n\n  // Cap per tier for bonus in wei.\n  //uint256 public constant TIER1 =  10000000000000000000000;\n  //uint256 public constant TIER2 =  25000000000000000000000;\n  //uint256 public constant TIER3 =  50000000000000000000000;\n\nfunction DAGTPriToken() public {\n\n    INITIAL_SUPPLY = 100000000;\n    RATE1 =  1700;\n    RATE2 =  1600;\n    RATE3 =  1400;\n    RATE4 =  1240;\n    RATE5 =  1118;\n    mintedNums =0;\n    totalSupply_ = INITIAL_SUPPLY;\n    balances[msg.sender] = INITIAL_SUPPLY;\n}\n\n\nfunction transfer(address _to, uint256 _value) public returns (bool) {\n     setLockMonth();\n     setLockMonth_2();\n     setMouthEnable(_value);\n     if(LockinMonth0==true||LockinMonth1==true||LockinMonth2==true||LockinMonth3==true||LockinMonth4==true)\n     {\n       bool ret =  super.transfer(_to,_value);\n       setMintNum(_value);\n       return ret;\n     }else\n     {\n       return  false;\n     }\n\n}\n\n\n\nfunction setLockMonth()  {\n  //2018/5/10 0:0:0 1525881600;2018/6/1 0:0:0 1527782400;2018/7/1 0:0:0 1530374400\n  //2018/8/1 0:0:0 1533052800;2018/9/1 0:0:0 1535731200;2018/9/30 23:59:59 1538323199\n\n  if((now< 1525881600) && (LockinMonth0==false))\n  {\n\n    LockinMonth1=false;\n    LockinMonth2=false;\n    LockinMonth3=false;\n    LockinMonth4=false;\n    LockinMonth0 = true;\n    mintedNums=0;\n  }\n  if((now< 1525881600) && (LockinMonth0==true) && (mintedNums>LOCK_NUMS_SUPPLY))\n  {\n    LockinMonth0 = false;\n  }\n   //e\n    if( (now >=1525881600) && (now< 1527782400) && (LockinMonth1==false))\n    {\n      LockinMonth0 = false;\n      LockinMonth2=false;\n      LockinMonth3=false;\n      LockinMonth4=false;\n      LockinMonth1 = true;\n      mintedNums=0;\n    }\n    if( (now >=1525881600) && (now< 1527782400) && (LockinMonth1==true) && (mintedNums>LOCK_NUMS_SUPPLY))\n    {\n      LockinMonth1 = false;\n    }\n    //\n    if( (now >=1527782400) && (now< 1530374400) && (LockinMonth2==false))\n    {\n      LockinMonth0 = false;\n      LockinMonth1=false;\n      LockinMonth3=false;\n      LockinMonth4=false;\n      LockinMonth2 = true;\n      mintedNums=0;\n    }\n    if((now >=1527782400) && (now< 1530374400) && (LockinMonth2==true) && (mintedNums>LOCK_NUMS_SUPPLY))\n    {\n      LockinMonth2 = false;\n    }\n\n\n  //  return (now,LockinMonth0,LockinMonth1,LockinMonth2,LockinMonth3,LockinMonth4);\n\n}\n\nfunction setLockMonth_2()\n{\n     if( (now >=1530374400) && (now< 1533052800) && (LockinMonth3==false))\n    {\n      LockinMonth0 = false;\n      LockinMonth1=false;\n      LockinMonth2=false;\n      LockinMonth4=false;\n      LockinMonth3 = true;\n      mintedNums=0;\n    }\n    if( (now >=1530374400) && (now< 1533052800) && (LockinMonth3==true) && (mintedNums>LOCK_NUMS_SUPPLY))\n    {\n      LockinMonth3 = false;\n    }\n    //\n    if( now >=1533052800 && now< 1535731200 && LockinMonth4==false)\n    {\n      LockinMonth0 = false;\n      LockinMonth1=false;\n      LockinMonth2=false;\n      LockinMonth3=false;\n\n      LockinMonth4 = true;\n      mintedNums=0;\n    }\n    if(  now >=1533052800 && now< 1535731200 && LockinMonth4==true && mintedNums>LOCK_NUMS_SUPPLY)\n    {\n      LockinMonth4 = false;\n    }\n\n\n}\n\nfunction setMouthEnable(uint256 _amount)\n{\n    if((mintedNums+_amount)>LOCK_NUMS_SUPPLY)\n    {\n      LockinMonth0 = false;\n      LockinMonth1=false;\n      LockinMonth2=false;\n      LockinMonth3=false;\n      LockinMonth4=false;\n    }\n}\nfunction lockSupplyNum() returns (uint256,uint256) {\n\n   return  (mintedNums,totalSupply());\n}\n\nfunction setMintNum(uint256 _amount) returns (bool) {\n  mintedNums =mintedNums+_amount;\n}\n\n}\n",
  "sourcePath": "/Users/leo/Projects/github/dagt/contracts/old/DagtTest.sol",
  "compiler": {
    "name": "solc",
    "version": "0.4.19+commit.c4cbbb05.Emscripten.clang"
  },
  "schemaVersion": "2.0.0",
  "updatedAt": "2018-03-15T10:48:13.064Z"
}