{
  "contractName": "DagtPub",
  "abi": [
    {
      "constant": true,
      "inputs": [],
      "name": "mintingFinished",
      "outputs": [
        {
          "name": "",
          "type": "bool"
        }
      ],
      "payable": false,
      "stateMutability": "view",
      "type": "function"
    },
    {
      "constant": true,
      "inputs": [],
      "name": "name",
      "outputs": [
        {
          "name": "",
          "type": "string"
        }
      ],
      "payable": false,
      "stateMutability": "view",
      "type": "function"
    },
    {
      "constant": true,
      "inputs": [],
      "name": "totalSupply",
      "outputs": [
        {
          "name": "",
          "type": "uint256"
        }
      ],
      "payable": false,
      "stateMutability": "view",
      "type": "function"
    },
    {
      "constant": true,
      "inputs": [],
      "name": "INITIAL_SUPPLY",
      "outputs": [
        {
          "name": "",
          "type": "uint256"
        }
      ],
      "payable": false,
      "stateMutability": "view",
      "type": "function"
    },
    {
      "constant": true,
      "inputs": [],
      "name": "decimals",
      "outputs": [
        {
          "name": "",
          "type": "uint8"
        }
      ],
      "payable": false,
      "stateMutability": "view",
      "type": "function"
    },
    {
      "constant": false,
      "inputs": [
        {
          "name": "_to",
          "type": "address"
        },
        {
          "name": "_amount",
          "type": "uint256"
        }
      ],
      "name": "mint",
      "outputs": [
        {
          "name": "",
          "type": "bool"
        }
      ],
      "payable": false,
      "stateMutability": "nonpayable",
      "type": "function"
    },
    {
      "constant": true,
      "inputs": [],
      "name": "RATE4",
      "outputs": [
        {
          "name": "",
          "type": "uint256"
        }
      ],
      "payable": false,
      "stateMutability": "view",
      "type": "function"
    },
    {
      "constant": true,
      "inputs": [],
      "name": "initTimeStamp",
      "outputs": [
        {
          "name": "",
          "type": "uint256"
        }
      ],
      "payable": false,
      "stateMutability": "view",
      "type": "function"
    },
    {
      "constant": false,
      "inputs": [
        {
          "name": "_spender",
          "type": "address"
        },
        {
          "name": "_subtractedValue",
          "type": "uint256"
        }
      ],
      "name": "decreaseApproval",
      "outputs": [
        {
          "name": "",
          "type": "bool"
        }
      ],
      "payable": false,
      "stateMutability": "nonpayable",
      "type": "function"
    },
    {
      "constant": true,
      "inputs": [
        {
          "name": "_owner",
          "type": "address"
        }
      ],
      "name": "balanceOf",
      "outputs": [
        {
          "name": "balance",
          "type": "uint256"
        }
      ],
      "payable": false,
      "stateMutability": "view",
      "type": "function"
    },
    {
      "constant": true,
      "inputs": [],
      "name": "RATE2",
      "outputs": [
        {
          "name": "",
          "type": "uint256"
        }
      ],
      "payable": false,
      "stateMutability": "view",
      "type": "function"
    },
    {
      "constant": true,
      "inputs": [],
      "name": "RATE5",
      "outputs": [
        {
          "name": "",
          "type": "uint256"
        }
      ],
      "payable": false,
      "stateMutability": "view",
      "type": "function"
    },
    {
      "constant": false,
      "inputs": [],
      "name": "finishMinting",
      "outputs": [
        {
          "name": "",
          "type": "bool"
        }
      ],
      "payable": false,
      "stateMutability": "nonpayable",
      "type": "function"
    },
    {
      "constant": true,
      "inputs": [],
      "name": "owner",
      "outputs": [
        {
          "name": "",
          "type": "address"
        }
      ],
      "payable": false,
      "stateMutability": "view",
      "type": "function"
    },
    {
      "constant": true,
      "inputs": [],
      "name": "symbol",
      "outputs": [
        {
          "name": "",
          "type": "string"
        }
      ],
      "payable": false,
      "stateMutability": "view",
      "type": "function"
    },
    {
      "constant": true,
      "inputs": [],
      "name": "RATE1",
      "outputs": [
        {
          "name": "",
          "type": "uint256"
        }
      ],
      "payable": false,
      "stateMutability": "view",
      "type": "function"
    },
    {
      "constant": false,
      "inputs": [
        {
          "name": "_spender",
          "type": "address"
        },
        {
          "name": "_addedValue",
          "type": "uint256"
        }
      ],
      "name": "increaseApproval",
      "outputs": [
        {
          "name": "",
          "type": "bool"
        }
      ],
      "payable": false,
      "stateMutability": "nonpayable",
      "type": "function"
    },
    {
      "constant": true,
      "inputs": [
        {
          "name": "_owner",
          "type": "address"
        },
        {
          "name": "_spender",
          "type": "address"
        }
      ],
      "name": "allowance",
      "outputs": [
        {
          "name": "",
          "type": "uint256"
        }
      ],
      "payable": false,
      "stateMutability": "view",
      "type": "function"
    },
    {
      "constant": true,
      "inputs": [],
      "name": "RATE3",
      "outputs": [
        {
          "name": "",
          "type": "uint256"
        }
      ],
      "payable": false,
      "stateMutability": "view",
      "type": "function"
    },
    {
      "constant": false,
      "inputs": [
        {
          "name": "newOwner",
          "type": "address"
        }
      ],
      "name": "transferOwnership",
      "outputs": [],
      "payable": false,
      "stateMutability": "nonpayable",
      "type": "function"
    },
    {
      "inputs": [],
      "payable": false,
      "stateMutability": "nonpayable",
      "type": "constructor"
    },
    {
      "anonymous": false,
      "inputs": [
        {
          "indexed": true,
          "name": "to",
          "type": "address"
        },
        {
          "indexed": false,
          "name": "amount",
          "type": "uint256"
        }
      ],
      "name": "Mint",
      "type": "event"
    },
    {
      "anonymous": false,
      "inputs": [],
      "name": "MintFinished",
      "type": "event"
    },
    {
      "anonymous": false,
      "inputs": [
        {
          "indexed": true,
          "name": "previousOwner",
          "type": "address"
        },
        {
          "indexed": true,
          "name": "newOwner",
          "type": "address"
        }
      ],
      "name": "OwnershipTransferred",
      "type": "event"
    },
    {
      "anonymous": false,
      "inputs": [
        {
          "indexed": true,
          "name": "owner",
          "type": "address"
        },
        {
          "indexed": true,
          "name": "spender",
          "type": "address"
        },
        {
          "indexed": false,
          "name": "value",
          "type": "uint256"
        }
      ],
      "name": "Approval",
      "type": "event"
    },
    {
      "anonymous": false,
      "inputs": [
        {
          "indexed": true,
          "name": "from",
          "type": "address"
        },
        {
          "indexed": true,
          "name": "to",
          "type": "address"
        },
        {
          "indexed": false,
          "name": "value",
          "type": "uint256"
        }
      ],
      "name": "Transfer",
      "type": "event"
    },
    {
      "constant": false,
      "inputs": [
        {
          "name": "_spender",
          "type": "address"
        },
        {
          "name": "_value",
          "type": "uint256"
        }
      ],
      "name": "approve",
      "outputs": [
        {
          "name": "",
          "type": "bool"
        }
      ],
      "payable": false,
      "stateMutability": "nonpayable",
      "type": "function"
    },
    {
      "constant": false,
      "inputs": [
        {
          "name": "_to",
          "type": "address"
        },
        {
          "name": "_value",
          "type": "uint256"
        }
      ],
      "name": "transfer",
      "outputs": [
        {
          "name": "",
          "type": "bool"
        }
      ],
      "payable": false,
      "stateMutability": "nonpayable",
      "type": "function"
    },
    {
      "constant": false,
      "inputs": [
        {
          "name": "_from",
          "type": "address"
        },
        {
          "name": "_to",
          "type": "address"
        },
        {
          "name": "_value",
          "type": "uint256"
        }
      ],
      "name": "transferFrom",
      "outputs": [
        {
          "name": "",
          "type": "bool"
        }
      ],
      "payable": false,
      "stateMutability": "nonpayable",
      "type": "function"
    },
    {
      "constant": false,
      "inputs": [],
      "name": "getDAGTRate",
      "outputs": [
        {
          "name": "rate",
          "type": "uint256"
        },
        {
          "name": "blocktime",
          "type": "uint256"
        },
        {
          "name": "blocknum",
          "type": "uint256"
        }
      ],
      "payable": false,
      "stateMutability": "nonpayable",
      "type": "function"
    }
  ],
  "bytecode": "0x60606040526000600460146101000a81548160ff0219169083151502179055506040805190810160405280600a81526020017f4441475420546f6b656e00000000000000000000000000000000000000000000815250600590805190602001906200006c929190620001dd565b506040805190810160405280600481526020017f444147540000000000000000000000000000000000000000000000000000000081525060069080519060200190620000ba929190620001dd565b506008600760006101000a81548160ff021916908360ff1602179055506301312d00600855610578600a5561051e600b556104d8600c5561049c600d5561045e600e5534156200010957600080fd5b33600460006101000a81548173ffffffffffffffffffffffffffffffffffffffff021916908373ffffffffffffffffffffffffffffffffffffffff160217905550426009819055506301312d00600881905550610578600a8190555061051e600b819055506104d8600c8190555061049c600d8190555061045e600e819055506008546001819055506008546000803373ffffffffffffffffffffffffffffffffffffffff1673ffffffffffffffffffffffffffffffffffffffff168152602001908152602001600020819055506200028c565b828054600181600116156101000203166002900490600052602060002090601f016020900481019282601f106200022057805160ff191683800117855562000251565b8280016001018555821562000251579182015b828111156200025057825182559160200191906001019062000233565b5b50905062000260919062000264565b5090565b6200028991905b80821115620002855760008160009055506001016200026b565b5090565b90565b611c28806200029c6000396000f30060606040526004361061013e576000357c0100000000000000000000000000000000000000000000000000000000900463ffffffff16806305d2035b1461014357806306fdde0314610170578063095ea7b3146101fe57806318160ddd1461025857806323b872dd146102815780632ff2e9dc146102fa578063313ce5671461032357806340c10f19146103525780634de970fd146103ac57806360768d66146103d557806366188463146103fe57806370a082311461045857806373357018146104a55780637ba81196146104ce5780637d64bcb4146104f75780638da5cb5b1461052457806395d89b4114610579578063a9059cbb14610607578063ccf4b70a14610661578063d73dd6231461068a578063dd62ed3e146106e4578063f1921edb14610750578063f2b4020914610787578063f2fde38b146107b0575b600080fd5b341561014e57600080fd5b6101566107e9565b604051808215151515815260200191505060405180910390f35b341561017b57600080fd5b6101836107fc565b6040518080602001828103825283818151815260200191508051906020019080838360005b838110156101c35780820151818401526020810190506101a8565b50505050905090810190601f1680156101f05780820380516001836020036101000a031916815260200191505b509250505060405180910390f35b341561020957600080fd5b61023e600480803573ffffffffffffffffffffffffffffffffffffffff1690602001909190803590602001909190505061089a565b604051808215151515815260200191505060405180910390f35b341561026357600080fd5b61026b6108d0565b6040518082815260200191505060405180910390f35b341561028c57600080fd5b6102e0600480803573ffffffffffffffffffffffffffffffffffffffff1690602001909190803573ffffffffffffffffffffffffffffffffffffffff169060200190919080359060200190919050506108da565b604051808215151515815260200191505060405180910390f35b341561030557600080fd5b61030d610912565b6040518082815260200191505060405180910390f35b341561032e57600080fd5b610336610918565b604051808260ff1660ff16815260200191505060405180910390f35b341561035d57600080fd5b610392600480803573ffffffffffffffffffffffffffffffffffffffff1690602001909190803590602001909190505061092b565b604051808215151515815260200191505060405180910390f35b34156103b757600080fd5b6103bf61093f565b6040518082815260200191505060405180910390f35b34156103e057600080fd5b6103e8610945565b6040518082815260200191505060405180910390f35b341561040957600080fd5b61043e600480803573ffffffffffffffffffffffffffffffffffffffff1690602001909190803590602001909190505061094b565b604051808215151515815260200191505060405180910390f35b341561046357600080fd5b61048f600480803573ffffffffffffffffffffffffffffffffffffffff16906020019091905050610bdc565b6040518082815260200191505060405180910390f35b34156104b057600080fd5b6104b8610c24565b6040518082815260200191505060405180910390f35b34156104d957600080fd5b6104e1610c2a565b6040518082815260200191505060405180910390f35b341561050257600080fd5b61050a610c30565b604051808215151515815260200191505060405180910390f35b341561052f57600080fd5b610537610cf8565b604051808273ffffffffffffffffffffffffffffffffffffffff1673ffffffffffffffffffffffffffffffffffffffff16815260200191505060405180910390f35b341561058457600080fd5b61058c610d1e565b6040518080602001828103825283818151815260200191508051906020019080838360005b838110156105cc5780820151818401526020810190506105b1565b50505050905090810190601f1680156105f95780820380516001836020036101000a031916815260200191505b509250505060405180910390f35b341561061257600080fd5b610647600480803573ffffffffffffffffffffffffffffffffffffffff16906020019091908035906020019091905050610dbc565b604051808215151515815260200191505060405180910390f35b341561066c57600080fd5b610674610dd0565b6040518082815260200191505060405180910390f35b341561069557600080fd5b6106ca600480803573ffffffffffffffffffffffffffffffffffffffff16906020019091908035906020019091905050610dd6565b604051808215151515815260200191505060405180910390f35b34156106ef57600080fd5b61073a600480803573ffffffffffffffffffffffffffffffffffffffff1690602001909190803573ffffffffffffffffffffffffffffffffffffffff16906020019091905050610fd2565b6040518082815260200191505060405180910390f35b341561075b57600080fd5b610763611059565b60405180848152602001838152602001828152602001935050505060405180910390f35b341561079257600080fd5b61079a611134565b6040518082815260200191505060405180910390f35b34156107bb57600080fd5b6107e7600480803573ffffffffffffffffffffffffffffffffffffffff1690602001909190505061113a565b005b600460149054906101000a900460ff1681565b60058054600181600116156101000203166002900480601f0160208091040260200160405190810160405280929190818152602001828054600181600116156101000203166002900480156108925780601f1061086757610100808354040283529160200191610892565b820191906000526020600020905b81548152906001019060200180831161087557829003601f168201915b505050505081565b600060011515600460149054906101000a900460ff1615151415156108be57600080fd5b6108c88383611292565b905092915050565b6000600154905090565b600060011515600460149054906101000a900460ff1615151415156108fe57600080fd5b6109098484846112c8565b90509392505050565b60085481565b600760009054906101000a900460ff1681565b60006109378383611300565b905092915050565b600d5481565b60095481565b600080600360003373ffffffffffffffffffffffffffffffffffffffff1673ffffffffffffffffffffffffffffffffffffffff16815260200190815260200160002060008573ffffffffffffffffffffffffffffffffffffffff1673ffffffffffffffffffffffffffffffffffffffff16815260200190815260200160002054905080831115610a5c576000600360003373ffffffffffffffffffffffffffffffffffffffff1673ffffffffffffffffffffffffffffffffffffffff16815260200190815260200160002060008673ffffffffffffffffffffffffffffffffffffffff1673ffffffffffffffffffffffffffffffffffffffff16815260200190815260200160002081905550610af0565b610a6f83826114e690919063ffffffff16565b600360003373ffffffffffffffffffffffffffffffffffffffff1673ffffffffffffffffffffffffffffffffffffffff16815260200190815260200160002060008673ffffffffffffffffffffffffffffffffffffffff1673ffffffffffffffffffffffffffffffffffffffff168152602001908152602001600020819055505b8373ffffffffffffffffffffffffffffffffffffffff163373ffffffffffffffffffffffffffffffffffffffff167f8c5be1e5ebec7d5bd14f71427d1e84f3dd0314c0f7b2291e5b200ac8c7c3b925600360003373ffffffffffffffffffffffffffffffffffffffff1673ffffffffffffffffffffffffffffffffffffffff16815260200190815260200160002060008873ffffffffffffffffffffffffffffffffffffffff1673ffffffffffffffffffffffffffffffffffffffff168152602001908152602001600020546040518082815260200191505060405180910390a3600191505092915050565b60008060008373ffffffffffffffffffffffffffffffffffffffff1673ffffffffffffffffffffffffffffffffffffffff168152602001908152602001600020549050919050565b600b5481565b600e5481565b6000600460009054906101000a900473ffffffffffffffffffffffffffffffffffffffff1673ffffffffffffffffffffffffffffffffffffffff163373ffffffffffffffffffffffffffffffffffffffff16141515610c8e57600080fd5b600460149054906101000a900460ff16151515610caa57600080fd5b6001600460146101000a81548160ff0219169083151502179055507fae5184fba832cb2b1f702aca6117b8d265eaf03ad33eb133f19dde0f5920fa0860405160405180910390a16001905090565b600460009054906101000a900473ffffffffffffffffffffffffffffffffffffffff1681565b60068054600181600116156101000203166002900480601f016020809104026020016040519081016040528092919081815260200182805460018160011615610100020316600290048015610db45780601f10610d8957610100808354040283529160200191610db4565b820191906000526020600020905b815481529060010190602001808311610d9757829003601f168201915b505050505081565b6000610dc883836114ff565b905092915050565b600a5481565b6000610e6782600360003373ffffffffffffffffffffffffffffffffffffffff1673ffffffffffffffffffffffffffffffffffffffff16815260200190815260200160002060008673ffffffffffffffffffffffffffffffffffffffff1673ffffffffffffffffffffffffffffffffffffffff1681526020019081526020016000205461151390919063ffffffff16565b600360003373ffffffffffffffffffffffffffffffffffffffff1673ffffffffffffffffffffffffffffffffffffffff16815260200190815260200160002060008573ffffffffffffffffffffffffffffffffffffffff1673ffffffffffffffffffffffffffffffffffffffff168152602001908152602001600020819055508273ffffffffffffffffffffffffffffffffffffffff163373ffffffffffffffffffffffffffffffffffffffff167f8c5be1e5ebec7d5bd14f71427d1e84f3dd0314c0f7b2291e5b200ac8c7c3b925600360003373ffffffffffffffffffffffffffffffffffffffff1673ffffffffffffffffffffffffffffffffffffffff16815260200190815260200160002060008773ffffffffffffffffffffffffffffffffffffffff1673ffffffffffffffffffffffffffffffffffffffff168152602001908152602001600020546040518082815260200191505060405180910390a36001905092915050565b6000600360008473ffffffffffffffffffffffffffffffffffffffff1673ffffffffffffffffffffffffffffffffffffffff16815260200190815260200160002060008373ffffffffffffffffffffffffffffffffffffffff1673ffffffffffffffffffffffffffffffffffffffff16815260200190815260200160002054905092915050565b6000806000809250635aaa988042101580156110795750635ab7c77f4211155b1561108857600a549250611129565b635ab7c78042101580156110a05750635ac3a4ff4211155b156110af57600b549250611128565b635ac4f68042101580156110c75750635ad0d3ff4211155b156110d657600c549250611127565b635ad2258042101580156110ee5750635ade02ff4211155b156110fd57600d549250611126565b635ae0a60042101580156111155750635ae5ebff4211155b1561112457600e549250611125565b5b5b5b5b5b429150439050909192565b600c5481565b600460009054906101000a900473ffffffffffffffffffffffffffffffffffffffff1673ffffffffffffffffffffffffffffffffffffffff163373ffffffffffffffffffffffffffffffffffffffff1614151561119657600080fd5b600073ffffffffffffffffffffffffffffffffffffffff168173ffffffffffffffffffffffffffffffffffffffff16141515156111d257600080fd5b8073ffffffffffffffffffffffffffffffffffffffff16600460009054906101000a900473ffffffffffffffffffffffffffffffffffffffff1673ffffffffffffffffffffffffffffffffffffffff167f8be0079c531659141344cd1fd0a4f28419497f9722a3daafe3b4186f6b6457e060405160405180910390a380600460006101000a81548173ffffffffffffffffffffffffffffffffffffffff021916908373ffffffffffffffffffffffffffffffffffffffff16021790555050565b600060011515600460149054906101000a900460ff1615151415156112b657600080fd5b6112c08383611531565b905092915050565b600060011515600460149054906101000a900460ff1615151415156112ec57600080fd5b6112f7848484611623565b90509392505050565b6000600460009054906101000a900473ffffffffffffffffffffffffffffffffffffffff1673ffffffffffffffffffffffffffffffffffffffff163373ffffffffffffffffffffffffffffffffffffffff1614151561135e57600080fd5b600460149054906101000a900460ff1615151561137a57600080fd5b61138f8260015461151390919063ffffffff16565b6001819055506113e6826000808673ffffffffffffffffffffffffffffffffffffffff1673ffffffffffffffffffffffffffffffffffffffff1681526020019081526020016000205461151390919063ffffffff16565b6000808573ffffffffffffffffffffffffffffffffffffffff1673ffffffffffffffffffffffffffffffffffffffff168152602001908152602001600020819055508273ffffffffffffffffffffffffffffffffffffffff167f0f6798a560793a54c3bcfe86a93cde1e73087d944c0ea20544137d4121396885836040518082815260200191505060405180910390a28273ffffffffffffffffffffffffffffffffffffffff16600073ffffffffffffffffffffffffffffffffffffffff167fddf252ad1be2c89b69c2b068fc378daa952ba7f163c4a11628f55a4df523b3ef846040518082815260200191505060405180910390a36001905092915050565b60008282111515156114f457fe5b818303905092915050565b600061150b83836119dd565b905092915050565b600080828401905083811015151561152757fe5b8091505092915050565b600081600360003373ffffffffffffffffffffffffffffffffffffffff1673ffffffffffffffffffffffffffffffffffffffff16815260200190815260200160002060008573ffffffffffffffffffffffffffffffffffffffff1673ffffffffffffffffffffffffffffffffffffffff168152602001908152602001600020819055508273ffffffffffffffffffffffffffffffffffffffff163373ffffffffffffffffffffffffffffffffffffffff167f8c5be1e5ebec7d5bd14f71427d1e84f3dd0314c0f7b2291e5b200ac8c7c3b925846040518082815260200191505060405180910390a36001905092915050565b60008073ffffffffffffffffffffffffffffffffffffffff168373ffffffffffffffffffffffffffffffffffffffff161415151561166057600080fd5b6000808573ffffffffffffffffffffffffffffffffffffffff1673ffffffffffffffffffffffffffffffffffffffff1681526020019081526020016000205482111515156116ad57600080fd5b600360008573ffffffffffffffffffffffffffffffffffffffff1673ffffffffffffffffffffffffffffffffffffffff16815260200190815260200160002060003373ffffffffffffffffffffffffffffffffffffffff1673ffffffffffffffffffffffffffffffffffffffff16815260200190815260200160002054821115151561173857600080fd5b611789826000808773ffffffffffffffffffffffffffffffffffffffff1673ffffffffffffffffffffffffffffffffffffffff168152602001908152602001600020546114e690919063ffffffff16565b6000808673ffffffffffffffffffffffffffffffffffffffff1673ffffffffffffffffffffffffffffffffffffffff1681526020019081526020016000208190555061181c826000808673ffffffffffffffffffffffffffffffffffffffff1673ffffffffffffffffffffffffffffffffffffffff1681526020019081526020016000205461151390919063ffffffff16565b6000808573ffffffffffffffffffffffffffffffffffffffff1673ffffffffffffffffffffffffffffffffffffffff168152602001908152602001600020819055506118ed82600360008773ffffffffffffffffffffffffffffffffffffffff1673ffffffffffffffffffffffffffffffffffffffff16815260200190815260200160002060003373ffffffffffffffffffffffffffffffffffffffff1673ffffffffffffffffffffffffffffffffffffffff168152602001908152602001600020546114e690919063ffffffff16565b600360008673ffffffffffffffffffffffffffffffffffffffff1673ffffffffffffffffffffffffffffffffffffffff16815260200190815260200160002060003373ffffffffffffffffffffffffffffffffffffffff1673ffffffffffffffffffffffffffffffffffffffff168152602001908152602001600020819055508273ffffffffffffffffffffffffffffffffffffffff168473ffffffffffffffffffffffffffffffffffffffff167fddf252ad1be2c89b69c2b068fc378daa952ba7f163c4a11628f55a4df523b3ef846040518082815260200191505060405180910390a3600190509392505050565b60008073ffffffffffffffffffffffffffffffffffffffff168373ffffffffffffffffffffffffffffffffffffffff1614151515611a1a57600080fd5b6000803373ffffffffffffffffffffffffffffffffffffffff1673ffffffffffffffffffffffffffffffffffffffff168152602001908152602001600020548211151515611a6757600080fd5b611ab8826000803373ffffffffffffffffffffffffffffffffffffffff1673ffffffffffffffffffffffffffffffffffffffff168152602001908152602001600020546114e690919063ffffffff16565b6000803373ffffffffffffffffffffffffffffffffffffffff1673ffffffffffffffffffffffffffffffffffffffff16815260200190815260200160002081905550611b4b826000808673ffffffffffffffffffffffffffffffffffffffff1673ffffffffffffffffffffffffffffffffffffffff1681526020019081526020016000205461151390919063ffffffff16565b6000808573ffffffffffffffffffffffffffffffffffffffff1673ffffffffffffffffffffffffffffffffffffffff168152602001908152602001600020819055508273ffffffffffffffffffffffffffffffffffffffff163373ffffffffffffffffffffffffffffffffffffffff167fddf252ad1be2c89b69c2b068fc378daa952ba7f163c4a11628f55a4df523b3ef846040518082815260200191505060405180910390a360019050929150505600a165627a7a72305820782f068a8e03f1e24d379ac52df889f4e03a8308838645351b82f50a835a420e0029",
  "source": "pragma solidity ^0.4.17;\n\n\nimport \"./DagtStandard.sol\";\n\n\ncontract DagtPub is DagtStandard {\n\nfunction DagtPub() public {\n\n    INITIAL_SUPPLY = 20000000;\n    RATE1 =  1400;\n    RATE2 =  1310;\n    RATE3 =  1240;\n    RATE4 =  1180;\n    RATE5 =  1118;\n    totalSupply_ = INITIAL_SUPPLY;\n    balances[msg.sender] = INITIAL_SUPPLY;\n}\n\n\n\n/*\nfunction test() returns (string block0) {\n\n  return  GetBlock(0);\n}*/\nfunction approve(address _spender, uint256 _value) public onlyMintingFinished returns (bool) {\n      return super.approve(_spender, _value);\n  }\n\n  /*function transfer(address _to, uint256 _value) public onlyMintingFinished returns (bool) {\n    return super.transfer(_to, _value);\n}*/\n//不需要挖矿\nfunction transfer(address _to, uint256 _value) public returns (bool) {\n  return super.transfer(_to, _value);\n}\n\nfunction transferFrom(address _from, address _to, uint256 _value) public onlyMintingFinished returns (bool) {\n  return super.transferFrom(_from, _to, _value);\n}\n\nfunction getDAGTRate() returns (uint256 rate ,uint blocktime,uint256 blocknum) {\n  //uint256  timeRate1_1 = 1521129600;// ToTimestamp(2018, 3, 16, 0, 0, 0);\n  //uint256  timeRate1_2 = 1521993599;// ToTimestamp(2018, 3, 25, 23, 59, 59);\n//  require(timeRate1_1 >= initTimeStamp);\n  //transfer(msg.sender, 0);\n  //uint256 startNumbers_1 = (1521129600-initTimeStamp)/15;\n//  uint256 endNumbers_1 =(1521993599-initTimeStamp)/15;\n\n  //2018.3.26~2018.4.4\n  //  uint256  timeRate2_1 = 1521993600;\n //  uint256  timeRate2_2 = 1522771199;\n  //uint256 startNumbers_2 = (1521993600-initTimeStamp)/15;\n//  uint256 endNumbers_2 =(1522771199-initTimeStamp)/15;\n\n  //2018.4.5~2018.4.14\n  //uint256  timeRate3_1 = 1522857600;\n //  uint256  timeRate3_2 = 1523635199;\n\n//  uint256 startNumbers_3 = (1522857600-initTimeStamp)/15;\n  //uint256 endNumbers_3 =(1523635199-initTimeStamp)/15;\n\n  //2018.4.15~2018.4.24\n  //uint256  timeRate4_1 = 1523721600;\n  //uint256  timeRate4_2 = 1524499199;\n//  uint256 startNumbers_4 = (1523721600-initTimeStamp)/15;\n//  uint256 endNumbers_4 =(1524499199-initTimeStamp)/15;\n\n  //2018.4.26—2018.4.30\n  //uint256  timeRate5_1 = 1524672000;\n  //uint256  timeRate5_2 = 1525017599;\n\n  //uint256 startNumbers_5 = (1524672000-initTimeStamp)/15;\n  //uint256 endNumbers_5 =(1525017599-initTimeStamp)/15;\n  rate = 0;\n/*  if((now>=1521129600) && (now<=1521993599) )\n  {\n    rate = RATE1;\n  }else if((now>=1521993600) && (now<=1522771199) )\n  {\n    rate = RATE2;*/\n  /*if((block.number>=startNumbers_1) && (block.number<=endNumbers_1) )\n  {\n      rate = RATE1;\n  }else if((block.number>=startNumbers_2) && (block.number<=endNumbers_2))\n  {\n      rate = RATE2;*/\n  if((now>=1521129600) && (now<=1521993599) )\n  {\n   rate = RATE1;\n  }else if((now>=1521993600) && (now<=1522771199) )\n  {\n      rate = RATE2;\n  }else if((now>=1522857600) && (now<=1523635199) )\n  {\n    rate = RATE3;\n  }else if((now>=1523721600) && (now<=1524499199) )\n  {\n    rate = RATE4;\n  }else if((now>=1524672000) && (now<=1525017599) )\n  {\n    rate = RATE5;\n  }else\n  {\n  //  throw;\n  }\n  blocktime = block.timestamp;\n  blocknum = block.number;\n  //return rate;\n}\n\n\n}\n",
  "sourcePath": "/Users/leo/Projects/github/dagt/contracts/old/DagtPub.sol",
  "compiler": {
    "name": "solc",
    "version": "0.4.19+commit.c4cbbb05.Emscripten.clang"
  },
  "schemaVersion": "2.0.0",
  "updatedAt": "2018-03-15T10:48:13.061Z"
}